:020000040801F1
:108000000006012031930108B5810908B9810908EA
:1080100025820908B9810908F1810908339301080B
:108020003393010833930108339301085DA00C08D2
:108030003393010833930108339301083393010804
:1080400033930108339301083393010833930108F4
:10805000339301083393010871B20C0899B20C08EC
:10806000C1B20C08E9B20C0811B30C08E95D0C08A8
:10807000115E0C083D5E0C08695E0C08955E0C08EC
:10808000BD5E0C08E95E0C08A15C0C083393010886
:1080900033930108339301083393010839B30C0873
:1080A00099B40C08B5B40C089DB40C08A1B40C0824
:1080B000B9B40C08C9B40C08DDB40C089D640C08F4
:1080C000F5650C08339301083393010833930108D5
:1080D000339301080DB40C0821B40C0835B40C0816
:1080E0009DB30C08339301083393010805B50C08C0
:1080F00021B50C0809B50C080DB50C08155F0C0866
:108100003393010833930108F1B40C083393010849
:1081100049B40C085DB40C0833930108339301088B
:10812000415F0C08695F0C08955F0C08C15F0C0883
:10813000ED5F0C0833930108339301083393010872
:1081400033930108339301083393010839A80C08CD
:1081500015600C0841600C086D600C0871B40C08C7
:1081600033930108339301083393010833930108D3
:1081700033930108339301083393010833930108C3
:10818000339301083393010885B40C083393010835
:1081900033930108339301083393010833930108A3
:1081A0003393010833930108339301083393010893
:1081B0003393010833930108339301083393010883
:1081C0003393010833930108339301083393010873
:1081D0003393010833930108339301083393010863
:1081E0003393010833930108339301083393010853
:1081F0003393010833930108339301083393010843
:10820000D9B3010889E60108F5710208654F030832
:10821000D5AA04081D3D0608414006081561060858
:10822000EDAC0608D1B4060821B80608712F07087E
:10823000A5C10708657B090819540A08895C0B0861
:10824000759C0B08ADC60B08D1CD0B0881F00B084F
:10825000F9020C088D2F0C0800000000000000003F
:10826000D0400B1CD1409C46203AD3401843524288
:108270006346934018437047D0400B1C1141203A8D
:1082800003D49C461341184363465242934018431B
:10829000704700BF9140031C90409C46203A934099
:1082A000194352426346D3401943704781F000415D
:1082B00002E000BF83F0004330B54FEA41044FEACB
:1082C000430594EA050F08BF90EA020F1FBF54EA66
:1082D000000C55EA020C7FEA645C7FEA655C00F002
:1082E000E2804FEA5454D4EB5555B8BF6D420CDDD3
:1082F0002C4480EA020281EA030382EA000083EA56
:10830000010180EA020281EA0303362D88BF30BDF5
:1083100011F0004F4FEA01314FF4801C4CEA11314B
:1083200002D0404261EB410113F0004F4FEA0333AA
:108330004CEA133302D0524263EB430394EA050F35
:1083400000F0A780A4F10104D5F1200E0DDB02FAA4
:108350000EFC22FA05F2801841F1000103FA0EF238
:10836000801843FA05F359410EE0A5F120050EF1FE
:10837000200E012A03FA0EFC28BF4CF0020C43FA2F
:1083800005F3C01851EBE37101F0004507D54FF03C
:10839000000EDCF1000C7EEB00006EEB0101B1F58C
:1083A000801F1BD3B1F5001F0CD349085FEA3000D2
:1083B0004FEA3C0C04F101044FEA445212F5800FDD
:1083C00080F09A80BCF1004F08BF5FEA500C50F17A
:1083D000000041EB045141EA050130BD5FEA4C0C5D
:1083E000404141EB010111F4801FA4F10104E9D1E6
:1083F00091F0000F04BF01460020B1FA81F308BFDD
:108400002033A3F10B03B3F120020CDA0C3208DDA8
:1084100002F1140CC2F10C0201FA0CF021FA02F183
:108420000CE002F11402D8BFC2F1200C01FA02F1F3
:1084300020FA0CFCDCBF41EA0C019040E41AA2BF18
:1084400001EB0451294330BD6FEA04041F3C1CDAE0
:108450000C340EDC04F11404C4F1200220FA04F000
:1084600001FA02F340EA030021FA04F345EA0301AA
:1084700030BDC4F10C04C4F1200220FA02F001FA6C
:1084800004F340EA0300294630BD21FA04F02946EE
:1084900030BD94F0000F83F4801306BF81F4801187
:1084A0000134013D4EE77FEA645C18BF7FEA655CFA
:1084B00029D094EA050F08BF90EA020F05D054EACC
:1084C000000C04BF1946104630BD91EA030F1EBFD1
:1084D0000021002030BD5FEA545C05D140004941D5
:1084E00028BF41F0004130BD14F580043CBF01F5C8
:1084F000801130BD01F0004545F0FE4141F47001AE
:108500004FF0000030BD7FEA645C1ABF1946104688
:108510007FEA655C1CBF0B46024650EA013406BF89
:1085200052EA033591EA030F41F4002130BD00BF48
:1085300090F0000F04BF0021704730B54FF4806405
:1085400004F132044FF000054FF0000150E700BF86
:1085500090F0000F04BF0021704730B54FF48064E5
:1085600004F1320410F0004548BF40424FF00001D2
:108570003EE700BF42004FEAE2014FEA31014FEA15
:1085800002701FBF12F07F4393F07F4F81F0605164
:10859000704792F0000F14BF93F07F4F704730B5D3
:1085A0004FF4607401F0004521F0004120E700BF66
:1085B00050EA010208BF704730B54FF000050AE0ED
:1085C00050EA010208BF704730B511F0004502D5EE
:1085D000404261EB41014FF4806404F132045FEAF0
:1085E000915C3FF4DCAE4FF003025FEADC0C18BF95
:1085F00003325FEADC0C18BF033202EBDC02C2F18B
:10860000200300FA03FC20FA02F001FA03FE40EA1C
:108610000E0021FA02F11444C1E600BF70B54FF01C
:10862000FF0C4CF4E06C1CEA11541DBF1CEA1355FE
:1086300094EA0C0F95EA0C0F00F0DEF82C4481EA66
:10864000030621EA4C5123EA4C5350EA013518BF86
:1086500052EA033541F4801143F4801338D0A0FB73
:1086600002CE4FF00005E1FB02E506F00042E0FB20
:1086700003E54FF00006E1FB03569CF0000F18BF26
:108680004EF0010EA4F1FF04B6F5007F64F54074CE
:1086900004D25FEA4E0E6D4146EB060642EAC62161
:1086A00041EA55514FEAC52040EA5E504FEACE2ECE
:1086B000B4F1FD0C88BFBCF5E06F1ED8BEF1004FD1
:1086C00008BF5FEA500E50F1000041EB045170BD4D
:1086D00006F0004646EA010140EA020081EA030191
:1086E000B4EB5C04C2BFD4EB0C0541EA045170BD8D
:1086F00041F480114FF0000E013C00F3AB8014F107
:10870000360FDEBF002001F0004170BDC4F100044F
:10871000203C35DA0C341BDC04F11404C4F12005D0
:1087200000FA05F320FA04F001FA05F240EA02002B
:1087300001F0004221F0004110EBD37021FA04F661
:1087400042EB06015EEA430E08BF20EAD37070BD1B
:10875000C4F10C04C4F1200500FA04F320FA05F07A
:1087600001FA04F240EA020001F0004110EBD3707C
:1087700041F100015EEA430E08BF20EAD37070BDEC
:10878000C4F1200500FA05F24EEA020E20FA04F3C5
:1087900001FA05F243EA020321FA04F001F0004174
:1087A00021FA04F220EA020000EBD3705EEA430EE5
:1087B00008BF20EAD37070BD94F0000F0FD101F014
:1087C0000046400041EB010111F4801F08BF013C4D
:1087D000F7D041EA060195F0000F18BF704703F08B
:1087E0000046520043EB030313F4801F08BF013D12
:1087F000F7D043EA0603704794EA0C0F0CEA1355CE
:1088000018BF95EA0C0F0CD050EA410618BF52EA87
:108810004306D1D181EA030101F000414FF000008D
:1088200070BD50EA410606BF1046194652EA43069B
:1088300019D094EA0C0F02D150EA013613D195EA0F
:108840000C0F05D152EA03361CBF104619460AD157
:1088500081EA030101F0004141F0FE4141F4700161
:108860004FF0000070BD41F0FE4141F4780170BD51
:1088700070B54FF0FF0C4CF4E06C1CEA11541DBFB6
:108880001CEA135594EA0C0F95EA0C0F00F0A7F8B8
:10889000A4EB050481EA030E52EA03354FEA0131E5
:1088A00000F088804FEA03334FF0805545EA1313F8
:1088B00043EA12634FEA022245EA111545EA1065C0
:1088C0004FEA00260EF000419D4208BF964244F157
:1088D000FD0404F5407402D25B084FEA3202B61A76
:1088E00065EB03055B084FEA32024FF480104FF44A
:1088F000002CB6EB020E75EB030E22BFB61A7546BE
:1089000040EA0C005B084FEA3202B6EB020E75EB50
:10891000030E22BFB61A754640EA5C005B084FEAB8
:108920003202B6EB020E75EB030E22BFB61A754685
:1089300040EA9C005B084FEA3202B6EB020E75EB90
:10894000030E22BFB61A754640EADC0055EA060E51
:1089500018D04FEA051545EA16754FEA06164FEA94
:10896000C30343EA52734FEAC2025FEA1C1CC0D140
:1089700011F4801F0BD141EA00014FF000004FF0CD
:10898000004CB6E711F4801F04BF01430020B4F18E
:10899000FD0C88BFBCF5E06F3FF6AFAEB5EB030C46
:1089A00004BFB6EB020C5FEA500C50F1000041EB43
:1089B000045170BD0EF0004E4EEA113114EB5C0410
:1089C000C2BFD4EB0C0541EA045170BD41F48011E3
:1089D0004FF0000E013C90E645EA060E8DE60CEAEB
:1089E000135594EA0C0F08BF95EA0C0F3FF43BAF08
:1089F00094EA0C0F0AD150EA01347FF434AF95EABF
:108A00000C0F7FF425AF104619462CE795EA0C0FA2
:108A100006D152EA03353FF4FDAE1046194622E76F
:108A200050EA410618BF52EA43067FF4C5AE50EA49
:108A300041047FF40DAF52EA43057FF4EBAE12E739
:108A40004FF0FF3C06E000BF4FF0010C02E000BF1A
:108A50004FF0010C4DF804CD4FEA410C7FEA6C5CFD
:108A60004FEA430C18BF7FEA6C5C1BD001B050EAA0
:108A7000410C0CBF52EA430C91EA030F02BF90EA8B
:108A8000020F0020704710F1000F91EA030F58BF4A
:108A9000994208BF90422CBFD8176FEAE37040F0AC
:108AA000010070474FEA410C7FEA6C5C02D150EA4A
:108AB000013C07D14FEA430C7FEA6C5CD6D152EA05
:108AC000033CD3D05DF8040B704700BF84461046CA
:108AD00062468C461946634600E000BF01B5FFF7C9
:108AE000B7FF002848BF10F1000F01BD4DF808ED99
:108AF000FFF7F4FF0CBF012000205DF808FB00BF6A
:108B00004DF808EDFFF7EAFF34BF012000205DF8C3
:108B100008FB00BF4DF808EDFFF7E0FF94BF012010
:108B200000205DF808FB00BF4DF808EDFFF7CEFF11
:108B300094BF012000205DF808FB00BF4DF808ED50
:108B4000FFF7C4FF34BF012000205DF808FB00BF21
:108B50004FEA410C7FEA6C5C02D150EA013C0AD139
:108B60004FEA430C7FEA6C5C02D152EA033C02D12B
:108B70004FF0000070474FF0010070474FEA41028C
:108B800012F5001215D211D56FF47873B3EB62525F
:108B900012D94FEAC12343F0004343EA505311F086
:108BA000004F23FA02F018BF404270474FF0000018
:108BB000704750EA013005D111F0004008BF6FF056
:108BC000004070474FF00000704700BF4A0011D2CC
:108BD00012F5001211D20DD56FF47873B3EB625217
:108BE0000ED44FEAC12343F0004343EA505323FA23
:108BF00002F070474FF00000704750EA013002D198
:108C00004FF0FF3070474FF0000070474FEA4102CD
:108C1000B2F1E04324BFB3F5001CDCF1FE5C0DD9DA
:108C200001F0004C4FEAC0024CEA5070B2F1004F24
:108C300040EB830008BF20F00100704711F0804F27
:108C400021D113F13872BCBF01F00040704741F4EC
:108C500080114FEA5252C2F11802C2F1200C10FAF0
:108C60000CF320FA02F018BF40F001004FEAC123D4
:108C70004FEAD32303FA0CFC40EA0C0023FA02F378
:108C80004FEA4303CCE77FEA625307D150EA01334E
:108C90001EBF4FF0FE4040F44000704701F000401E
:108CA00040F0FE4040F40000704700BF80F00040FC
:108CB00002E000BF81F0004142001FBF5FEA4103B4
:108CC00092EA030F7FEA226C7FEA236C6AD04FEAB4
:108CD0001262D2EB1363C1BFD218414048404140F9
:108CE000B8BF5B42192B88BF704710F0004F40F4AB
:108CF000000020F07F4018BF404211F0004F41F4C7
:108D0000000121F07F4118BF494292EA030F3FD092
:108D1000A2F1010241FA03FC10EB0C00C3F12003A5
:108D200001FA03F100F0004302D5494260EB400034
:108D3000B0F5000F13D3B0F1807F06D340084FEA9F
:108D4000310102F10102FE2A51D2B1F1004F40EB94
:108D5000C25008BF20F0010040EA030070474900FC
:108D600040EB000010F4000FA2F10102EDD1B0FAC7
:108D700080FCACF1080CB2EB0C0200FA0CF0AABFBC
:108D800000EBC25052421843BCBFD040184370475A
:108D900092F0000F81F4000106BF80F40000013260
:108DA000013BB5E74FEA41037FEA226C18BF7FEA37
:108DB000236C21D092EA030F04D092F0000F08BF79
:108DC0000846704790EA010F1CBF0020704712F060
:108DD0007F4F04D1400028BF40F00040704712F19F
:108DE00000723CBF00F50000704700F0004343F004
:108DF000FE4040F4000070477FEA226216BF08463A
:108E00007FEA23630146420206BF5FEA412390EAFC
:108E1000010F40F4800070474FF0000304E000BFF2
:108E200010F0004348BF40425FEA000C08BF7047A3
:108E300043F0964301464FF000001CE050EA010267
:108E400008BF70474FF000030AE000BF50EA01027C
:108E500008BF704711F0004302D5404261EB410169
:108E60005FEA010C02BF84460146002043F0B6438E
:108E700008BFA3F18053A3F50003BCFA8CF2083AB3
:108E8000A3EBC25310DB01FA02FC634400FA02FCBC
:108E9000C2F12002BCF1004F20FA02F243EB0200C3
:108EA00008BF20F00100704702F1200201FA02FC25
:108EB000C2F1200250EA4C0021FA02F243EB020018
:108EC00008BF20EADC7070477BB972B90029BEBFC9
:108ED00000204FF0004106E008BF00281CBF6FF0E3
:108EE00000414FF0FF3000F021BAADF1080C6DE900
:108EF00004CE002909DB002B1ADB00F0A9F8DDF80D
:108F000004E0DDE9022304B07047404261EB410117
:108F1000002B1BDB00F09CF8DDF804E0DDE9022308
:108F200004B0404261EB4101524263EB430370479E
:108F3000524263EB430300F08BF8DDF804E0DDE917
:108F4000022304B0404261EB41017047524263EB9F
:108F5000430300F07DF8DDF804E0DDE9022304B00E
:108F6000524263EB4303704753B94AB9002908BF23
:108F700000281CBF4FF0FF314FF0FF3000F0D6B992
:108F8000ADF1080C6DE904CE00F062F8DDF804E004
:108F9000DDE9022304B07047430803F05533C01ADB
:108FA000830803F0333300F03330184400EB101023
:108FB00000F00F3000EB002000EB0040000E704787
:108FC00080EA104080EA102080EA101046F69613DE
:108FD00000F00F0043FA00F000F00100704700BFFE
:108FE00007EE900AF5EEC07AF1EE10FA01D400F027
:108FF00009B808B580F0004000F004F8404261EB89
:10900000410108BDD0B5FFF7B5FA00220E4B064668
:109010000F46FFF703FBFFF7D9FD0446FFF788FA79
:1090200000220A4BFFF7FAFA02460B463046394651
:10903000FFF740F9FFF7CAFD2346002242EA00028B
:1090400010461946D0BD00BF0000F03D0000F041C1
:109050002DE9F0478C460D460446089E002B51D161
:109060008A4217466DD9B2FA82FEBEF1000F0BD0CC
:10907000CEF1200C01FA0EF520FA0CFC02FA0EF7E4
:109080004CEA050C00FA0EF44FEA174A250CBCFB1B
:10909000FAF81FFA87F90AFB18CC45EA0C4508FBD9
:1090A00009F3AB420AD9ED1908F1FF3280F02381B0
:1090B000AB4240F22081A8F102083D44ED1AA4B26F
:1090C000B5FBFAF00AFB105544EA054400FB09F928
:1090D000A14509D9E41900F1FF3380F00A81A145C7
:1090E00040F2078102383C44A4EB090440EA0840FE
:1090F0000021002E61D024FA0EF400233460736046
:10910000BDE8F0878B4207D9002E54D0002186E8B5
:1091100021000846BDE8F087B3FA83F1002940F04A
:109120008E80AB4202D3824200F2FA80841A65EB51
:1091300003050120AC46002E3FD086E81010BDE8A4
:10914000F08712B90127B7FBF2F7B7FA87FEBEF135
:10915000000F34D1EB1B3A0C1FFA87FC0121B3FB43
:10916000F2F8250C02FB183345EA03450CFB08F323
:10917000AB4207D9ED1908F1FF3002D2AB4200F241
:10918000D1808046ED1AA3B2B5FBF2F002FB105578
:1091900043EA05440CFB00FCA44507D9E41900F19F
:1091A000FF3302D2A44500F2B8801846A4EB0C04A9
:1091B00040EA08409DE731463046BDE8F087CEF1F1
:1091C000200405FA0EF307FA0EF720FA04F83A0C19
:1091D00025FA04F448EA0308B4FBF2F14FEA184513
:1091E00002FB11441FFA87FC45EA044501FB0CF31E
:1091F000AB4200FA0EF409D9ED1901F1FF3080F00D
:109200008A80AB4240F2878002393D44EB1A1FFA54
:1092100088F5B3FBF2F002FB103345EA034500FB8F
:109220000CF3AB4207D9ED1900F1FF386FD2AB4216
:109230006DD902383D44EB1A40EA01418FE7C1F194
:10924000200722FA07F88B4005FA01F448EA0303E5
:1092500020FA07FE4FEA134CFD404EEA040EB5FB20
:10926000FCF94FEA1E440CFB19551FFA83F844EA37
:10927000054509FB08F4AC4202FA01F200FA01FAD2
:1092800008D9ED1809F1FF3043D2AC4241D9A9F118
:1092900002091D442D1B1FFA8EFEB5FBFCF00CFBD2
:1092A00010554EEA054400FB08F8A04507D9E4181C
:1092B00000F1FF3529D2A04527D902381C4440EAE5
:1092C0000940A4EB0804A0FB02894C45C6464D4664
:1092D00015D312D056B1BAEB0E0364EB050404FAB1
:1092E00007F7CB401F43CC40376074600021BDE8D6
:1092F000F0871846F8E69046E0E6C245EAD2B8EBB9
:10930000020E69EB03050138E4E72846D7E740463B
:1093100091E78146BEE7014678E702383C4445E7DD
:10932000084608E7A8F102083D442BE7704700BF54
:1093300002E000F000F8FEE772B6394880F30888D2
:10934000384880F3098838484EF60851CEF20001BB
:10935000086040F20000CCF200004EF63471CEF20C
:1093600000010860BFF34F8FBFF36F8F40F2000022
:10937000C0F2F0004EF68851CEF200010860BFF353
:109380004F8FBFF36F8F4FF00000E1EE100A4EF6E3
:109390003C71CEF200010860062080F31488BFF310
:1093A0006F8FB0F0C1FEB1F02BFE4FF055301F496A
:1093B0001B4A91423CBF41F8040BFAE71C49194A89
:1093C00091423CBF41F8040BFAE71A491A4A1B4B79
:1093D0009A423EBF51F8040B42F8040BF8E7002014
:1093E0001749184A91423CBF41F8040BFAE7B0F024
:1093F000DFFEB1F06FFE144C144DAC4203DA54F8AA
:10940000041B8847F9E701F0D7FF114C114DAC421E
:1094100003DA54F8041B8847F9E7B0F0C7BE000030
:109420000006012000220120008001080000012028
:1094300000060120E82E0F0800220120B829012093
:10944000B8290120F0390220008201085882010861
:1094500058820108588201082DE9F04F2DED108A3D
:10946000C1F80CD0D0F80CD0BDEC108ABDE8F08F5C
:10947000002383F311882846A0470020AFF0F2FEB6
:10948000FEE7AFF061FD00DFFEE7000001F0FF0145
:10949000102A2BDB10F0070F08D010F8013B013A1F
:1094A0008B422DD010F0070F42B3F6D1F0B441EA51
:1094B000012141EA014122F007047FF00007002367
:1094C000F0E80256083C85EA010586EA010685FABD
:1094D00047F5A3FA87F586FA47F6A5FA87F68EB917
:1094E000EED1F0BC01F0FF0102F0070232B110F83A
:1094F000013B013A83EA010313B1F8D10020704720
:1095000001387047002D06BF35460338073815F07F
:10951000010F07D1013015F4807F02BF013015F42F
:10952000C03F0130F0BC0138704700BF10F8012B7C
:1095300011F8013B012A28BF9A42F7D0D01A704790
:10954000034613F8012B002AFBD1181A0138704783
:1095500001207047074A13780133DBB21D2B98BFF7
:10956000137003684FF0000188BF11709B6888BFBB
:1095700001211847002201202DE9F0418368012BC9
:109580009CB005460E4600F08A80990600F187805F
:1095900001201CB0BDE8F08192ED017AD3ED0A7A8A
:1095A000B4EEE77AF1EE10FA00F3B18041F68223CF
:1095B000E35E002B07DC654B32462021284677F01E
:1095C0003DFD0020E5E741F63847E25D0D2A05D86C
:1095D0004FF42153D340DA0700F19F805C4BEBE757
:1095E0000DF10808322241465A4870F0A5FE40B9F4
:1095F000594BCDF8008032462021284677F01EFDD9
:10960000DFE7E3570D2B07D059F062F82B2158F014
:10961000B9FE002840F08D8059F05AF8202158F00A
:10962000B1FE08B94D4BC7E74D480FF0A9F8012826
:109630001CD143F26453E05871F06AFD012806D052
:10964000022811D090B9474B0093474BD3E742F221
:10965000A453E35CDB0705D5192144484AF06AFEB0
:10966000002868D1424BEFE7424BEDE743F26050F0
:109670000FAF32233A464049205870F01BFD10B915
:1096800000973E4BB7E743F25C5032233A463C49E1
:1096900020586EF05BFE00287FF47BAFF0E7394C7A
:1096A00041F68623E3567BB142F2FC4241F6882321
:1096B000A258E35EB2F90A1003F10A02914228DDD2
:1096C00040F28D32934224DD41F67523E356022B9E
:1096D00005D12D4B32462021284677F0AFFC41F6CC
:1096E0004E2341F65832E35AA3F57A739BB2934264
:1096F00011D843F25C53254AE35892ED007AD3ED3A
:10970000097AB4EEE77AF1EE10FA7FF745AF204B15
:1097100052E7204B50E7204B4EE742F62C133146E0
:10972000E05803681B6D984700287FF459AF1B4B26
:1097300042E71B4B40E741F6642319210B48E75EE3
:109740004AF008FE874291DD164B7DE750240D0854
:1097500051250D0808610120FE250D087F240D0804
:1097600044660120C3240D089E240D0830360120D4
:109770008F250D08E9240D08FA240D08FE240D0894
:1097800010250D08C029012028240D087844012047
:1097900037250D0814250D0827250D0865240D080B
:1097A0006A250D08D3240D0810B542F62C130B4A78
:1097B000D35893F86F4024B9094A77F07FFD2046CB
:1097C00010BD93F91831002B04DA064A77F076FDC4
:1097D0000024F4E7202177F01FFCF0E7C0290120E6
:1097E000D8230D08F6230D0813B58368012B0A460C
:1097F00004D05B0602D4012002B010BD0B4B41F631
:10980000862159560029F6D042F2FC415C5841F6B7
:109810008821595EB4F906309942ECDD044B00937F
:109820004021044B77F00AFC0020E5E7C029012025
:10983000CC260D08FE250D082DE9F04742F60C1345
:10984000DFF85481044658F80300036898B01B6998
:109850000D469847814618F08BF8074632220021C2
:109860000BA8B4F0EDFF3B680BAA9E6A4946322371
:109870003846B047064648B90BAB3F4A2946204612
:1098800077F01CFD304618B0BDE8F0873B4862F029
:1098900055FFB9F1000F0AD0404613F0A3FD78B987
:1098A000374A2946204677F009FD0026EAE710F0FE
:1098B000060FE7D0404613F095FD08B9314AF0E7AE
:1098C00003A9384617F08EFE28B19DF80D305B06CF
:1098D00001D52D4AE5E7DFF8D080D8ED007AF5EE26
:1098E000C07AF1EE10FA4FF000032EDD08930993D1
:1098F0000A933B6807AA0DF120090192CDF8009068
:10990000D3F8E4A005AA06AB04A93846D0474846D8
:109910002FF0D8F8D8ED007AB4EEE70AF1EE10FA9D
:1099200001DB1A4ABDE79DED057AF4EEC77AF1EE48
:1099300010FA01D8164AB4E79DED047AF4EEC77A1E
:10994000F1EE10FA01D8134AABE707F5907112480F
:1099500005F022F9074608B1104AA2E710490E485F
:1099600005F01AF900288DD00E4A2946204677F0D6
:10997000A5FC3E4686E700BFF8250D08E85F0120FC
:1099800001260D0818260D083E260D084C260D0848
:1099900061260D0877260D08C02901208D260D08A7
:1099A000EC5E0120AA260D086444012008B5064A91
:1099B00042F62513D35C9B0704D5044A77F07EFC5E
:1099C000002008BD012008BDC0290120A0250D08E8
:1099D00070B5836813F0210F8EB005460E460FD088
:1099E00078F04CFC044658B13222002101A8B4F0B2
:1099F00027FF2046322201A978F008FC044608B16E
:109A0000012405E001AB044A3146284677F056FCB4
:109A100020460EB070BD00BFFE250D0870B542F6A1
:109A20000C130B4C0546E05803685B690E469847DB
:109A300010B10124204670BD204613F0E5FC044619
:109A40000028F6D1034A3146284677F037FCF1E783
:109A5000C029012024230D0870B505460E46FFF7E6
:109A6000EBFE064B0446D87131462846FFF7D6FF79
:109A7000002814BF2046002070BD00BF7D6B012070
:109A80002DE9F04142F62C122B4FBA5892F86D4056
:109A900005460E46002C45D158F01AFE202158F0FC
:109AA00071FC30B158F014FE1F2158F06BFC0028F7
:109AB0003BD142F60613FB5C03F01403142B04D1D4
:109AC0001E4A3146284677F0F9FBAB6833B92B685C
:109AD000314628461B6BBDE8F04118473146284601
:109AE000FFF74AFD314604462846FFF75DFE314642
:109AF00004402846FFF778FEE4B204403146284689
:109B0000FFF754FF314604402846FFF761FF314616
:109B100004402846FFF782FF31460440284678F08B
:109B2000DBF904402046BDE8F081054A314628466D
:109B300077F0C4FBF6E700BFC0290120B0250D086F
:109B4000C8250D0810B5FFF79BFF054942F6041222
:109B50008C5C60F304148C54024A907110BD00BFF9
:109B6000C02901207D6B012007B5044872F042FB3B
:109B700000F0010003B05DF804FB00BFFC5E0120B3
:109B8000F7B505460F4677F0C5FA044620B1AB6835
:109B9000012B04D09A0702D4204603B0F0BD12482E
:109BA00072F028FBC0F3072010F00106F4D1830700
:109BB000F2D50D4872F0C8FA0C4BD3ED007AF8EEEE
:109BC000E77A30EE670ADFED0A7AB0EEC00AB4EE4B
:109BD000E70AF1EE10FADFDD064B3A46022128468D
:109BE00077F02CFA3446D7E7FC5E0120C05E0120F6
:109BF0000000C84214240D082DE9F041074690B03A
:109C0000884677F0B9FBBB68012B054605D05B079A
:109C100003D4284610B0BDE8F08103AC3222002105
:109C20002046B4F00DFE1EF0DFFB322221461EF06E
:109C300059FA06460028ECD10094044B4246042110
:109C4000384677F0FBF93546E3E700BFFE250D08FF
:109C5000F8B504460F4677F02FFDA368012B0546A3
:109C600003D0DB0601D42846F8BD2046FFF77CFF71
:109C700006460028F7D1044B3A461021204677F0DB
:109C8000DDF93546EFE700BFC4230D0838B50446BB
:109C90000D4677F091F998B1A368012B0AD01B0605
:109CA00008D438BD2046074B2A46802177F0C6F9F4
:109CB000002038BD42F639630349CB5C002BF1D15B
:109CC00038BD00BFE4250D08C0290120F0B542F2DF
:109CD000F443124C85B0E358009342F2F8436A46CD
:109CE000E358019342F2FC430646E358029304F51D
:109CF00014530F461B68039378F068F839460546FD
:109D0000304677F0C3F942F604122840A35C60F3B2
:109D1000C303C3F3C000A35405B0F0BDC0290120A4
:109D20002DE9F84306462248224D0F4662F006FD13
:109D300042F60C1300F00609E85803681B699847BF
:109D4000A84604461C4D10B9B9F1000F08D0394699
:109D5000304677F0F9F918B90020E871BDE8F883CA
:109D600039463046FFF768FD0028F5D034B9B9F11F
:109D7000000F03D10123EB71BDE8F883B368012B19
:109D800001D01B07F6D598F85C33882202FB0383C9
:109D9000B3F8E22141F6762338F903309A42E9DD3F
:109DA000064B3A460821304677F048F9D4E700BF21
:109DB000E85F0120C02901207D6B0120B4230D083C
:109DC0002DE9F7430F46054617F0D2FD0368D3F897
:109DD000C43080469847044640B95C4A0121284671
:109DE00077F06CFA204603B0BDE8F083DFF8849189
:109DF00042F60C13394659F8030003689B699847EB
:109E00004E46044608B9524AE8E701212846FFF7C2
:109E1000CBFC04460028E5D042F6061319F80330BF
:109E200003F01403142B05D14A4A0121284677F088
:109E300045FA4CE058F04CFC1F2158F0A3FA464B71
:109E4000B8B91870AB68002BCCD0012B1DD0DA0646
:109E50001BD4AB68012B3CD05B063AD43F4B1B684C
:109E6000D86C0368DB6998470128014606D13C4A53
:109E7000DCE71B78002BE5D03A4AD6E7394628467E
:109E800003B0BDE8F04377F089BDD8ED4E7A98ED88
:109E90004D0A20EE270AB1F0DDFEDFED337A41F600
:109EA0004E2320EE270AF35EDFED307A20EE270AFC
:109EB00007EE903AF8EEE77AB4EEE70AF1EE10FA20
:109EC000C7DD2B4B01221021284677F0B7F800247C
:109ED00088E741F68623F3564BB142F2FC4341F644
:109EE0008822F358B25EB3F906309A4229DC012F7A
:109EF0000DD142F60C14305903681B6898470428AA
:109F0000ACD0305903681B6898471428A6D042F299
:109F1000FC431848F358B3F9083000EE103AB8EE95
:109F2000C00A00F03BFAB5EEC00AF1EE10FA95DD7A
:109F3000114B0093114B01224021284677F07EF807
:109F4000C5E70D4B00930E4BF5E700BF38230D0816
:109F500049230D08B0250D080C750120206A012049
:109F600091230D085A230D08E02E65420000C842D7
:109F700072230D08C029012086230D087A230D08BD
:109F80009F230D082DE9F041544C2378A046002B67
:109F900040F0A180524D42F62C160127AE59277091
:109FA00096F86D601EB123703046BDE8F08178F000
:109FB0002FF8064630B94B4A2070137843F001035E
:109FC0001370F1E74EF00AF939464DF0B7FB284619
:109FD00005F082FE444B1F710C27013F04D045F071
:109FE00065FE45F001FEF8E73D4800F0D5FD17F0AD
:109FF000BFFC42F654138269EA5090F83031DA0718
:10A00000044657D40368D3F8DC3098474EF0E6F89E
:10A010003C214EF03FF8354B00221A6000213048B9
:10A0200000F04EFE2E4813F0DDF90146304875F081
:10A03000F7FC94F8803043F0040384F880302D4B13
:10A040002D4C1B680121D86C27F01EFE244811F00E
:10A050006BFF42F62C130121E85874F08FFE4EF08E
:10A06000BDF842F60C130746E85803681B6898478A
:10A070002278014638464DF011FDA4F5D25005F086
:10A080001DFE00274BF024FA4AF0A8FE88F8007065
:10A090007EF00CF943F27053E85094F8C62E42F06B
:10A0A000200284F8C62E94F8C72E67F3410284F884
:10A0B000C72E79E79B07B1D43946094804F022FE40
:10A0C0000E4872F041F8DFED0E7A084B20EE270AB9
:10A0D00083ED000AA2E7002666E700BFB829012049
:10A0E000C02901209C6B01207D6B0120D8520120EA
:10A0F000184D0120206A012000440120FC5E01204F
:10A100000AD7233C2DE9F04342F62C13354EF35881
:10A1100093F86D3085B0002B61D05AB1012909D177
:10A1200042F60413F356002B04DB0027384605B033
:10A13000BDE8F08377F0CAFF07460028F5D017F096
:10A1400017FC05461EF050F92B688146D3F8A03065
:10A1500028469847D8B199F92430022B17D100240A
:10A160004FF0000801AA21462846CDF80480CDF81A
:10A170000880CDF80C8017F075FA20B101AA2146AD
:10A1800048461DF0D9FD0134E4B2032CEAD1012187
:10A19000144806F0E3F80121124806F0C5F842F62B
:10A1A0002C130021F05874F0E9FD0F4830F030FA1C
:10A1B0004EF014F800214DF0C1FA95F880306FF39D
:10A1C000820385F88030094B1B680021D86C27F08A
:10A1D0005BFD074B9A786FF345129A70A6E701274B
:10A1E000A4E700BFC02901201C620120206A0120D1
:10A1F000C4520120014862F06BBB00BFE85F012040
:10A2000010B542F60412835CC3F340148C420AD0AA
:10A2100061F34513835431B14DF0E0FF0F21BDE8E8
:10A2200010404DF037BF10BD38B542F63C13044620
:10A23000C3588B420D4613D0012912D0022917D0E2
:10A2400059B94DF0CBFF1B214DF024FF0D4A04F509
:10A250001B5006212C304FF043FC42F63C13E550D6
:10A2600038BD4DF0BBFF1A214DF014FF064AEEE752
:10A27000012100F025FD4DF0B1FF1D214DF00AFF39
:10A28000024AE4E730270D0845270D0840270D084E
:10A2900042F6251238B5835C0C4603F00101A14259
:10A2A00008D064F300038354DB0704D405F0EAF913
:10A2B000024B9C7238BD05F029FBF9E77D6B01204C
:10A2C00042F62513C25C61F34102C254014B19737B
:10A2D000704700BF7D6B012000F52450837943F067
:10A2E000040383717047000038B52DED028B43F2F3
:10A2F0005C530546C358DFED110A93ED2B0A5D2030
:10A30000B7EE001A2AF0ECFE43F26053B0EE408A3A
:10A31000EC5842F62C1304F5A474E8580368DB6883
:10A32000984738EE400ABDEC028BDFED057A2046F7
:10A3300020EE270ABDE8384065F0BCB800000000F8
:10A3400000007A4400F5905300F59150D3ED055A82
:10A35000D2ED007AD0ED006A91ED006A26EEE77A40
:10A3600067EEA57AA6EE257AE6EE267A81ED007AEA
:10A37000C2ED007A7047000042F22843C35E3BB949
:10A3800041F68223C05E0028B8BF404280B27047C9
:10A3900083EAE370A0EBE370F8E7000070B52DED01
:10A3A000028B42F625130446C15C11F0010504D06E
:10A3B0009FED2A0ABDEC028B70BD42F60513C35C0B
:10A3C0005B07F5D5DFED268ADFED240AB0EE681ACB
:10A3D0003A202AF085FE41F68A264FF4C8722946B3
:10A3E000A05FB0EE408A2AF0B1FEA053204611F0E3
:10A3F000C1FEA35F07EE900A01EE103AF8EEE77A8D
:10A40000B8EEC11A37EEC17AB4EEC78AF1EE10FA8F
:10A410000DD52046FFF7B0FF07EE900A38EE478AC9
:10A42000B8EEE70A20EE088A88EE070AC2E737EEA0
:10A43000811AB4EEC18AF1EE10FAB9DD41F6822339
:10A4400038EE418AE35E00EE103AB8EEC00A38EE0C
:10A45000C11A20EE088A88EE010AABE7000000006E
:10A4600000007A4470B52DED028B42F62C1504469F
:10A47000435993F86D30B3B142F60413C356002B21
:10A4800011DB43F28C73C35C6BB942F60C16805936
:10A4900003685B69984730B9324B985903681B6869
:10A4A00098470B2802D1BDEC028B70BD43F260537C
:10A4B0009FED2D7AE358D3ED977AF0EEE77AF4EE3C
:10A4C000C77AF1EE10FAEED5605938304EF028FD1B
:10A4D0000346B7EE001A7C20DFED240A93ED000A54
:10A4E0002AF0FEFDB5EEC00AF1EE10FADBDD04F550
:10A4F00054503C3071F02CFEDFED1D7AB0EEC00AF6
:10A50000B4EEE70AF1EE10FACDD541F2E803E358D4
:10A5100008EE103A43F25C53B8EEC88AE05803687C
:10A52000DB6F984738EE400ABDEEC00A10EE103AD5
:10A53000002BB8BF5B42B3F5FA7FB4DA41F2EC030B
:10A5400040F2E632E35803F2F3139342ABD8BDEC8A
:10A55000028B42F62C139FED070AE058BDE87040CD
:10A5600072F022B9C0290120000000340000000070
:10A57000000070420AD7233C00207047002070473B
:10A580007047000042F60C13C05803681B68184758
:10A59000034808602E21117008221A60704700BF1E
:10A5A0009C270D0810B542F60C130C46C0580368E2
:10A5B0005B6D984707EE900A9FED047AF8EE677A94
:10A5C000012067EE877AC4ED007A10BD0AD7233CDC
:10A5D00010B542F60C130C46C05803681B6D984723
:10A5E00007EE900A9FED047AF8EEE77A012067EE15
:10A5F000877AC4ED007A10BD0AD7233C10B542F625
:10A600000C130C46C05803689B6D9847DFED037A26
:10A6100020EE270A012084ED000A10BD0AD7233C52
:10A620000368DB6B1847000066F0F0BA5AF058BFB9
:10A6300077F008BE13F0F4B85EF0F0B811F096BEF3
:10A6400011F028BE11F004BE4AF058BE28F0D0BC6C
:10A650004DF0C8B919F0E2B959F0F8B956F0D4BEC6
:10A6600055F002BD11F024BA11F0DABF06F028B897
:10A6700005F0EEBA04F04EBF04F070BE45F0B4BA77
:10A6800005F086BD503061F0A5BF000017F0C4BDD5
:10A690005BF0E4B90EF0C2BFFFF7E4BE11F05ABBA5
:10A6A00075F00CBE11F088BE03F0AEBB11F0D4BA49
:10A6B00011F046BA57F08CBF47F0ACB821F008B99A
:10A6C00005F0AEB909F022B809F07AB909F00AB973
:10A6D00070B51A4B036042F2EC63194AC25042F65D
:10A6E00098030446C05808B11AF04AFC154B236081
:10A6F00041F63023E21812793AB9E5582DB12846CF
:10A7000027F020FB28461AF03FFC04F57F606BF031
:10A71000D7F804F6F86058F0C7FF0B4BC4F8883838
:10A7200004F6182604F63425AE4204D01C3D284613
:10A730004EF0C4F9F8E7204670BD00BF802B0D082D
:10A74000B8340E08341C0E0860E60D08404B37B5CF
:10A75000044640F8043B5AF06FFF04F1200060F01B
:10A760007FF804F108053B4B3B491D60284648F043
:10A77000FFFE3A4B0193009402AB13E9060004F18B
:10A7800058004AF043FC04F582701FF0D3F804F23D
:10A79000144017F0CBF904F22C501DF0C7F804F662
:10A7A000880028F0AFFA04F53B605AF08BFD04F501
:10A7B000476049F08FFC04F6F86058F05DFF04F63E
:10A7C000347019F047FA04F57F606BF065F804F512
:10A7D000805008304AF08CFF04F583500C305BF059
:10A7E0007FF841F274030025E218E55404F5845023
:10A7F0001B4B04301A6045F0B9F804F58650294621
:10A80000183015F045FE04F5AF50083065F072F8C9
:10A8100004F5AF50143065F099FD04F5C6500830CA
:10A8200068F016FE04F5CF506AF000FC04F5D25330
:10A830001D700C4D2B6813B10B487DF00FFD2046A9
:10A840000A4948F095FE20462C6003B030BD00BF99
:10A85000341C0E08206B012098A10D0821A60108C8
:10A860009C7701205C6C012054270D089C1B0E086E
:10A8700010B511F00FFC57F02BFF0368BDE8104036
:10A880005B681847FFF7F4BF10B5044605F064FD98
:10A89000204612F0BBF9204605F0FAFB204605F0F1
:10A8A000CBFB204603F0E6FF2046BDE8104004F055
:10A8B00053B90000FFF7E8BF70B500F5255518350E
:10A8C0000446284618F0FAFB1DF08EFD90F9213061
:10A8D00073B342F62C1304F22C56E05838304EF085
:10A8E0001FFB0346B7EE001A7C20DFED120A93ED42
:10A8F000000A2AF0F5FB94F96835012B284608BFB9
:10A9000086ED130A002118F015FADFED0B7A04F634
:10A91000380494ED007A20EE270ADFED087AA7EEDE
:10A92000270A304684ED000ABDE870401DF06CBA7D
:10A9300070BD00BF00000000CDCCCC3D6666663F18
:10A94000FFF7BABF10B50121044612F0A7F960B1B4
:10A9500042F60C13054AD05803689B6A984720B901
:10A960002046BDE8104002F0C3B910BDC029012047
:10A97000FFF7E8BF38B50221044612F08FF968B13D
:10A980000121204612F08AF940B942F60C134B4AD5
:10A99000D05803689B6A984700287AD00221204645
:10A9A00012F07CF9002878D10121204612F076F9C6
:10A9B000002872D14FF40031204612F06FF910B127
:10A9C000204602F02BFA4021204612F067F958B1D8
:10A9D00004F51455043528464BF080FD94F9F83EF3
:10A9E00013B128464BF09CFE4FF48061204612F0D4
:10A9F00055F920B104F5145004304BF00BFE202122
:10AA0000204612F04BF988B142F60C1560590368E4
:10AA10001B699847002844D120460CF08FFC002881
:10AA20003FD1605903685B699847D0B380212046C5
:10AA300012F034F9D8BB4FF48021204612F02EF9E1
:10AA4000A8BB4FF40021204612F028F978BB102152
:10AA5000204612F023F960B143F25C53E0586BF0EA
:10AA60006DFD04F5DB5104F51450083104304CF051
:10AA70002FF9204602F056FB4FF6FF71204612F0E8
:10AA80000DF9C8B104F510500C30BDE8384077F02E
:10AA9000E7BB204602F02CF980E7204602F0ACF933
:10AAA00088E743F26053E0586EF042FBBEE729F0BE
:10AAB00055FA28F041F8CAE738BD00BFC029012087
:10AAC000FFF758BF10B50121044612F0E7F810B1A6
:10AAD000204602F091F98021204612F0DFF828B1DB
:10AAE00029F03CFABDE8104028F008B810BD00007D
:10AAF000FFF7E8BF10B5044605F064F8204604F0FF
:10AB0000BBFE204605F050F9204612F08DFE20468F
:10AB1000BDE8104003F08ABEFFF7ECBF38B54FF632
:10AB2000FF71044612F0BAF830B142F6041307215F
:10AB3000E258204602F09EF904F5195042F62C1511
:10AB40001030FEF707FD635993F86D308BB904F5AB
:10AB50008650183014F0C8FF2046FFF7BDFB60593F
:10AB600041F69E220368A25CDB6941F63841615CD4
:10AB7000984757F05DFF204612F054FE42F604134A
:10AB8000034AE35CDB43C3F3C013537138BD00BF1A
:10AB90007D6B0120FFF7C2BFF8B500F59053143369
:10ABA00000F525571B683B6000F5915341F2F00614
:10ABB0001B687B600446805900F58C4050302AF0B9
:10ABC0004FFA42F648134FF6FF71E0503A68FA60C8
:10ABD0007A683A61204612F061F830B1A2592046F5
:10ABE0000921BDE8F84002F01BB9F8BD10B542F6E6
:10ABF0003C13C258002A52D042F60513C35CDB074F
:10AC00004DD500F52453012A59796FF3000159718C
:10AC100042F2F443C358B3F9083006EE103A00F597
:10AC20002553B8EEC66A3BD193ED007A42F2F84361
:10AC3000C358B3F9083007EE903A00F52553F8EE03
:10AC4000E77AD3ED015A65EEE76A67EE277A00F5F9
:10AC50009151E6EE257A00F5905242F2F443E6EE89
:10AC6000076AC45891ED007A92ED056A27EE877A5B
:10AC7000A6EE867ABDEEC77A17EE103A238192EDE2
:10AC8000057A67EE877A91ED007AE6EEC77A42F2AE
:10AC9000F843C058FDEEE77A17EE903A038110BDF5
:10ACA00093ED037A42F2F843C358B3F9083007EE44
:10ACB000903A00F52553F8EEE77AD3ED045AC2E74F
:10ACC00010B504462DED028B79B1204611F064F8E1
:10ACD00042F6481240F2E631A3581B1A03F2F3136E
:10ACE0008B420DD8BDEC028B10BD42F63C13C3580D
:10ACF000022BF7D111F032F8B0F57A7FE5D2F1E707
:10AD0000A05000F58C405030642390FBF3F308EE24
:10AD1000103ADFED0B7AB8EEC88A28EE278AB0EE3B
:10AD2000480AB0F0A9FD04F5255383ED030AB0EEFF
:10AD3000480AB0F017FF04F5255484ED040AD1E762
:10AD400035FA8E3C00F586500121183016F01ABBFA
:10AD500010B5044600F6880028F014FB43F25C535B
:10AD6000E05803685B6C9847204610F029FE2046A7
:10AD7000FFF7E8FF204605F0B3F8204605F090FA0B
:10AD8000204604F085FB204605F086FD204603F0B2
:10AD9000DBFF204605F04CFC04F5575058F05CFEF4
:10ADA0004FF6FF71204611F079FF10B1204602F0F6
:10ADB000BFF82046BDE810404AF044BF10B5044635
:10ADC00011F0DEF91021204611F068FF38B120465D
:10ADD00002F06AFA2046BDE810404BF0D1B810BD31
:10ADE000FFF7ECBFF8B50446274605F0A5FC2E4B4F
:10ADF00047F83C3B2D4B63652D4BE3652D4B63665C
:10AE00002465A465246604F1780019F097FD04F127
:10AE10009000002519F092FD4FF6FF7604F1A8008E
:10AE200019F08CFDA4F8BA60A4F8BC60A4F8B8507E
:10AE300004F1C00019F082FD1F4B20491F60384605
:10AE400048F096FB012384F8383104F5B677A4F86E
:10AE50007060A4F888602946102684F81051C4F860
:10AE60003451502204F5AE70B3F0EAFC3246294664
:10AE70003846B3F0E5FC384604F5C27719F05EFDBC
:10AE8000324629463846B3F0DBFC384604F5CE7727
:10AE900019F054FD324629463846B3F0D1FC384605
:10AEA00019F04CFD2046F8BDE4830D08C5A6010845
:10AEB000C9A60108CDA601084C6B0120ACF10D0814
:10AEC00010B5044619F03AFD04F1100019F036FDF2
:10AED00004F1200019F032FD04F1300019F02EFDCC
:10AEE000204610BD2DE9F0432DED028B044685B0C0
:10AEF000FFF72CFC904B236004F5D650083002F08D
:10AF000093FA04F5D45104F51450183104304CF080
:10AF100057FB42F29C5204F5D4530C33A35042F237
:10AF2000A053062204F51650E25430304DF0A0FF35
:10AF300004F5175014304DF09BFF42F2EC5342F2EF
:10AF40005067012504F51750E550E6193C3058F0DC
:10AF50003BF9304676F032F8784BE351301D47F03C
:10AF6000BBFC10B942F25463E55404F51A5020308A
:10AF700046F0FAFB42F2EC63714AE250E71804F53E
:10AF80001D5607F1280538362846143552F0F4FCD2
:10AF9000B542F9D142F69806A5191E23AB800023CD
:10AFA000EB802B8140F2CC6019F0E2FFA05105F15B
:10AFB0000C007CF013FB04F5235028307CF00EFBD2
:10AFC000604B1A6802B91F6042F2EC635E4AE250BD
:10AFD00004F5745742F60C13103704F52450E7506B
:10AFE000113073F08FFFB7EE008A04F5255383ED1F
:10AFF000008A83ED038A554B0393554B00930294CB
:10B0000004AB04F5255013E90C004FF4007118301F
:10B0100017F0F4FD04F538503C3078F059FA04F597
:10B020005450B0EE480A04304DF0CEFF04F55458A9
:10B0300004F55450B0EE480A08F12C081C304DF0CD
:10B040001FFF404619F07AFC43F23C534149E1505E
:10B05000E21804F5555300251D605D609D60DD60BC
:10B060001D615D6104F586531833D36143F2755356
:10B07000002204F55556E25406F1540019F05EFC26
:10B080004FF40043B367C6F87C8038363249304607
:10B0900048F06EFA314B04F557501E6058F026FC0C
:10B0A00004F55850283061F0B3FA04F55B5043F2D0
:10B0B00014761C3061F03AFE04F55C58A01948F093
:10B0C00067FE08F12808264BA351FF2388F81030AB
:10B0D00088F818302349404648F04AFA224B1E6847
:10B0E00016B122487DF0BAF8C3F8008004F55D5827
:10B0F00008F108081E49404648F03AFA1D49C8F8C8
:10B100000450404648F034FA1B4B1C4A1A6004F5C0
:10B110005D51243133464FF0180E9EB20EFB06F0FF
:10B120000133105C0028F8D1154B1E80154B1E68AA
:10B1300076B31548D6E700BF802B0D08F0260D0822
:10B14000B8340E08D474012058300D08C1A6010887
:10B15000342B0D0808710E088CA20D08286B0120F5
:10B160002C270D08045B0E08247801203C2B0D08C9
:10B17000506E0E08646E0E081C6C012000680D08ED
:10B18000186C0120DC6B01205D2B0D08CDCC4C3DF3
:10B1900004F55D501960283004214EF06BFA04F577
:10B1A0005E501FED060A43F2A47810304DF068FEA1
:10B1B00004EB080005F0C0FA6E4B44F8083043F287
:10B1C000E47804EB080005F0B7FA6B4B44F808305C
:10B1D00004F5605043F6CC182030FFF703FE04EB73
:10B1E000080005F0A9FA43F61029644B44F808302A
:10B1F00004EB0908404605F09FFA614B44F809301A
:10B2000088F83C6088F83D6043F6502804EB08005D
:10B2100005F092FA5B4B44F8083043F68C2804EBB7
:10B22000080005F089FA584B44F8083004F56B53D0
:10B2300043F6E02804EB08099D60DD601D61484687
:10B2400005F07AFAC9F83C60504B44F8083043F6F0
:10B25000283904EB0908404605F06EFA4C4B44F8D7
:10B260000930C8F83C6043F66C3804EB080005F080
:10B2700063FA484B44F8083043F6B43804EB08004E
:10B2800005F05AFA444B44F8083043F6F03804EB22
:10B29000080005F051FA414B44F8083004F57153A9
:10B2A00043F684489D62DD6204EB0805DFF80491F3
:10B2B000284605F041FA44F808904FF0010885F857
:10B2C0003C8085F83D6005F14000FFF7F9FD384608
:10B2D00005F032FA43F61053314AE25043F64C552A
:10B2E000601905F029FA43F6FC572E4B635104F51B
:10B2F0007650E51908300EF0A5FC284605F01CFA3A
:10B30000294BE35185F83C6085F83D6043F64C6578
:10B310006719384605F010FAFE63244B635143F673
:10B320009067E519284605F007FA44F8079005F1FB
:10B33000400085F83C8085F83D60FFF7C1FD1C4B5F
:10B34000E35104F57C5085F88980203009F0F2FA49
:10B3500004F57F5024300FF08BFB42F62812204674
:10B36000A35C43F00303A35405B0BDEC028BBDE81E
:10B37000F08300BFA4810D0828820D0864840D08A5
:10B38000E4840D0864850D08DC850D08FC870D0834
:10B3900074880D086C890D08E4890D08648A0D080D
:10B3A0003C8D0D08B88C0D08E0900D08FC880D0848
:10B3B000388C0D08BC8B0D0838B5054B1C6823680C
:10B3C0000A461D68034B01462046A847002038BDA9
:10B3D000206A0120C029012010B57CF0B3FB064C87
:10B3E000064B18602046FFF77DFD2046044A0549BC
:10B3F000BDE81040B0F01CB9C0290120206A01202E
:10B4000004C80120D1A6010801207047FA20704726
:10B4100041F65223014AD05C704700BFC029012089
:10B4200042F62C13034AD05810B103681B68184722
:10B4300001487047C029012038300D0842F63C13FE
:10B44000024AD058431E584258417047C029012033
:10B4500042F63C13024AD058831E58425841704766
:10B46000C029012070B5C169026A4D4D41F4E05315
:10B47000C36142F4E0530362436A044643F4E0507C
:10B48000606242F60510285C460742BF42F48E32E5
:10B49000226241F48E3142F6051248BFE161AA5C96
:10B4A000500707D542F62512AA5CD1075CBF43F4CA
:10B4B0008E336362E36943F4C043E36142F60C13E5
:10B4C000E85803681B689847162811D8012303FA27
:10B4D00000F0344B0340002B46D1334B184207D0C9
:10B4E000226A636A42F4C042226243F4C043636248
:10B4F0002E4B1E682EB11921304648F01BFF002844
:10B500003AD142F2A453EB5CDA070AD5236A43F43A
:10B51000807323622EB11921304648F02DFF002898
:10B520002FD146F0F9F960B190F90530002B2DD1FB
:10B53000036833B10379DB0742BF636A43F040031A
:10B540006362E36943F08043E361236A43F080432D
:10B55000236242F62C13EB5893F86530FBB9636A0B
:10B5600043F08043636270BD236A43F40053236257
:10B57000636A43F40053BAE7E36943F48073E36119
:10B58000BFE7636A43F480736362CAE7E36943F029
:10B590004003E361236A43F040032362C8E770BDC0
:10B5A000C029012004A05000F8022F00286C0120BF
:10B5B00070B54FF4E8700D46164619F0DFFC3246C0
:10B5C0000446294654F044FF014B2360204670BDD9
:10B5D00050320D0808B590F88C30994208DD4AF0D9
:10B5E0004BFE16224FF480214AF0FCFD002008BDDE
:10B5F000243150F8210008BD08B590F88C309942EC
:10B6000008DD4AF039FE0F224FF480214AF0EAFDAE
:10B61000002008BD243150F8210008BD00207047EB
:10B620000320704710B542F60C13104CE058036825
:10B630001B689847172816D8012303FA00F00C4B13
:10B640000340002B0CBF1023182342F62C1243F0AA
:10B650004000A25822B192F86D200AB143F0C00018
:10B6600040F0010010BD1023EFE700BFC02901200A
:10B67000F800AB0041F65423014AD05C704700BF8C
:10B68000C029012041F62843024AD056003018BF95
:10B6900001207047C029012041F65623014AD056A7
:10B6A000704700BFC02901207047000070470000AC
:10B6B00007B542F62C130E4AD058B0B138304DF0D1
:10B6C0002FFC0346B7EE001A7C20DFED0A0A93ED4B
:10B6D000000A29F005FDDFED087A20EE270AFDEECD
:10B6E000C07ACDED017ABDF9040003B05DF804FB2A
:10B6F000C0290120000000000000C8422DE9F04FE1
:10B70000334FDFF8D480DFF8D4908BB005460024A7
:10B71000E65DB8F9003006F1FF3A43FA0AF3D907BB
:10B7200034D5287C4FF062F98346287C50F056F8D7
:10B73000193083453DD2287C4EF014FC0BB0BDE897
:10B74000F08F244B186803689B68984700F19003BA
:10B75000E3B1D3F800A0D3F804C0D9681A69D3F8CC
:10B7600018E05B69089362230193192306910792FD
:10B77000287C009303AAC221CDF80CA0CDF810C0FC
:10B78000CDF814E08DF824604FF076F90134042CE4
:10B79000BED1D3E70F4B18680368DB68D5E70D4BC4
:10B7A000186803681B69D0E7D9F8003003F5EC731B
:10B7B000CEE7BAF1030FE9D801A353F82AF000BF8E
:10B7C00043B7010895B701089FB70108A9B7010859
:10B7D00020330D081C5F012068440120205F0120F8
:10B7E00010B5044676F04AFD20B12146BDE8104070
:10B7F00076F006BD10BD0000014807F0EFBB00BFAA
:10B80000E061012070B505460E4614461146054814
:10B8100077F024F9224631462846BDE8704054F0BE
:10B8200041BB00BFF04D012010B588B0044651F077
:10B83000B3FA42F62C130A4AD05830B9094A062105
:10B84000204651F0BFF908B010BD69461E2273F0C2
:10B8500069FA6B46044A0621204651F0B3F9F2E733
:10B86000C029012038300D08FE250D0810B442F221
:10B87000F042044CA35C0133A3545DF8044B50F038
:10B880009BBC00BFC029012010B508460C4619F02A
:10B890001BF928B12146034802F096FE002010BD96
:10B8A000042010BD246A0120014803F02BBA00BF18
:10B8B000C0290120014803F0A9B900BFC029012017
:10B8C000F8B58A7A4B7A43EA0223CA7A43EA0243FA
:10B8D0009D2B07460C460ED1114D43F2C25605F57D
:10B8E0005750A95D58F0BEF828B1A95D05F557502D
:10B8F00058F010F928B121463846BDE8F84050F01C
:10B9000003BCD4ED057A9FED070ADFED070A07486F
:10B91000F8EEE77A27EE800A02F036FEEBE700BF8A
:10B92000C02901200AD7233C00000000246A01201E
:10B9300008B550F0F7FB40F6CD1200231043194331
:10B9400008BD000010B5044619F01EFB204610BDCE
:10B9500038B50D4C42F60413E356002B0FDB42F6CC
:10B960000C15605903685B6C984750B960590368BF
:10B970001B6C9847002814BF0320022038BD01200B
:10B9800038BD042038BD00BFC029012038B5F7EE0E
:10B99000000A91ED050A04460D4629F09DFA28B1EA
:10B9A00021460548BDE8384003F0E0B92946204665
:10B9B000BDE8384053F0DCB8C02901201FB5002392
:10B9C00001930293039314F0FDFB036801A91B6F1D
:10B9D000984728B101A82DF075F805B05DF804FB73
:10B9E0001FF0AAFF90F85832882202FB030090ED66
:10B9F000330AF2E70B7ADB0706D541F2FC12034863
:10BA0000CB6882581344CB60704700BFC029012027
:10BA1000044B187828B942F60613034AD05CC0F3E9
:10BA200080107047246B0120C02901200B4B42F687
:10BA300025129A5CD10706D442F63961595C11B9D6
:10BA400012F01E0F01D00520704742F604129B56DB
:10BA5000002BB4BF03200420704700BFC029012081
:10BA600008B5084A41F69C23D356032B03D0BDE802
:10BA7000084051F0BFB8044A022151F0A3F8042055
:10BA800008BD00BFC029012048310D08094B41F60F
:10BA90002C429A58920701D450F0D4B843F2305255
:10BAA000DFED057A9B5800EE103AB8EEC00A20EEA2
:10BAB000270A7047C02901200AD7233C10B594B04B
:10BAC000044603A818F03AFF42F60C131C4AD0585B
:10BAD000036803A9DB6C984700282FD0002103A836
:10BAE00018F0C8FF50B3247C7CF0E0FB059B089362
:10BAF000069BDDED047A099300230B930C930D93C1
:10BB00000E930F931093119312934FF6F873F8EE70
:10BB1000E77A9FED0C7AADF84C3000238DF84E306B
:10BB2000962367EE877A019333230790009307AA41
:10BB300057212046CDED0A7A4EF09EFF14B010BD7D
:10BB4000C02901200AD7233C30B52DED0A8B42F6DF
:10BB50000C13764C0546E058036899B05B6A984729
:10BB600000285AD043F66433E358062B00F2C9800C
:10BB7000DFE803F00404045788AB53006C489FEDE2
:10BB80006D8A0AF097FE9FED6C0A0168426883682F
:10BB90000D930BA80B910C922CF044FBF0EE489AFD
:10BBA000B0EE40CAF0EE60BAB0EE419AB0EE48AAEC
:10BBB000F0EE488AF0EE48AAB0EE48BA40F6F874C3
:10BBC0002D7C7CF073FB00231593169301238DF8D5
:10BBD0005E308C23019333230B90B1EE499AF1EE42
:10BBE000688AB1EE488A00930BAA552128468DED4C
:10BBF0000CCACDED0DBA8DED0E9A8DED0FBACDEDCF
:10BC000010AACDED118A8DED12AACDED139A8DED0E
:10BC1000148AADF85C404EF02FFF19B0BDEC0A8BD2
:10BC200030BD43480AF046FE9FED430A0168426872
:10BC300083680D930BA80B910C922CF0F3FA3C48FF
:10BC4000F0EE60BAB0EE419AB0EE40CA0AF036FEAD
:10BC50009FED390A2CF0E6FA3548B0EE40BAF0EE26
:10BC600060AAF0EE418A0AF02DFE9FED330A2CF017
:10BC7000D9FA4FF46064B0EE40AAF0EE609AB0EEEC
:10BC8000418A9DE72A489FED2B9A0AF017FE9FED07
:10BC90002A0A2CF0C7FA2648B0EE40BAF0EE60AAA5
:10BCA000F0EE418A0AF00EFE9FED230A2CF0BAFA5C
:10BCB000F0EE49BAB0EE40AAF0EE609AB0EE418ADA
:10BCC000B0EE49CA40F607647AE71948DFED198AF1
:10BCD0000AF0F8FD9FED180A2CF0A4FAF0EE68AA1D
:10BCE000B0EE40AAF0EE609AB0EE418AB0EE68BACB
:10BCF000B0EE689AF0EE68BAB0EE68CA40F63F64FB
:10BD00005EE79FED0C8A0024F0EE489AB0EE48AA58
:10BD1000F0EE488AF0EE48AAB0EE48BAB0EE489A83
:10BD2000F0EE48BAB0EE48CA4AE700BFC029012089
:10BD3000E8640120000000000AD7233C2DE9F0410F
:10BD400042F60513414D2DED068BEB5C99068EB046
:10BD5000064675D543F25C539FED3D0AE8589FEDCA
:10BD60003D8A3C302CF05EFA42F60C138DED061A3B
:10BD7000EC588DED040A21EE081A2368CDED050A72
:10BD8000FDEEC17A1B6DCDED037A204620EE08AAA8
:10BD900060EE889A96F81080BDF90C70984707EE0F
:10BDA000900AF8EEE77A236867EE887A5B6DFDEE1D
:10BDB000E77A2046CDED037ABDF90C60984743F24F
:10BDC000605307EE900AEB58F8EE678A1869DFEDCA
:10BDD000227A93ED949A036868EE888A9B68F4EE61
:10BDE000E78AF1EE10FA58BFF0EE678A98472368A9
:10BDF000D0ED027A9B6D204639EE679A9847FCEEAB
:10BE0000E87A00230A9317EE903AADF83430B7235E
:10BE100029EE089A20EE080A01931A23009307AA34
:10BE20003E2140468DED07AACDED089A8DED099A89
:10BE30008DED0B0AADF83070ADF832604EF01CFE9F
:10BE40000EB0BDEC068BBDE8F08100BFC02901201B
:10BE50009F0CB3450AD7233C00FF7F47F8B58B8B77
:10BE6000CD2B07460D460ED1104C43F2C25604F5B9
:10BE70005750A15D57F0F6FD28B1A15D04F557506C
:10BE800057F048FE28B129463846BDE8F84050F042
:10BE9000C1B995ED020ADFED067ADFED060A064824
:10BEA00020EE270A02F070FBEDE700BFC029012059
:10BEB0000AD7233C00000000246A012042F62C131C
:10BEC000024AD05808B190F86C007047C029012090
:10BED00008B5044A42F60C13D05803681B6898470B
:10BEE00008BD00BFC029012042F60513024AD05CFC
:10BEF000C0F34010704700BFC029012070B542F662
:10BF00000C133C4D2DED028B0646E85891ED018A4D
:10BF1000036888B05B6A0C46984740BBBDEEC88A90
:10BF200018EE103ADB0722D4022008B0BDEC028BD9
:10BF300070BD42F60C13E85803685B6A98470446E4
:10BF400098B9022204212B4804F030FD00284FD07C
:10BF5000DFED290A00942346B0EE600A224604A9C8
:10BF600026480AF0FFF9002842D00020DDE7616989
:10BF700020692AF069F80028D6D004A818F0DEFC61
:10BF8000D4ED067A9FED1E7A23690693F0EEE77AE8
:10BF9000F4EEC77A63690793F1EE10FAC4DC03AAE2
:10BFA00094F82010304654F0FBF80028BCD09FEDE8
:10BFB000157AD4ED067A039A67EE877A04A8FDEE27
:10BFC000E77A17EE901A18F0BFFC0F4904A818F092
:10BFD00087FD03460028A7D1DFED070A009002463F
:10BFE000B0EE600A04A905480AF0BCF90028A0D107
:10BFF00004209AE7C029012000000000E864012025
:10C00000001CA2470000C842EC5E01208A8B202A57
:10C0100082B004D0C02A1DD002B054F061B9D1ED75
:10C02000007AF5EEC07AF1EE10FA16DD9FED0C7A8B
:10C03000F4EEC77AF1EE10FA0FD8FCEEE77A42F28E
:10C040003242CDED017A07499DF804308B52002031
:10C0500002B0704702B0FFF751BF0320F8E700BFFE
:10C0600000007F43C029012010B52DED028B8CB05C
:10C070000023039304930593044614F0A3F8036884
:10C0800003A91B6F984758B314F09CF803689B6E84
:10C090009847F0EE607A8DED060ACDED070AF1EED5
:10C0A000400AB1EE670A8DED081A247CAFF08AFED3
:10C0B00006A8B0EE408A2CF005FD089BDFED0A7A59
:10C0C0000B93012368EE277A01930C23009309AAAE
:10C0D000A8212046CDED097A8DED0A0A4EF0CCFC60
:10C0E0000CB0BDEC028B10BDE02E6542282938B59E
:10C0F000044610D008D81A290DD025290DD0204685
:10C10000BDE8384053F096B9392904D0F7D3A1F1EE
:10C110003B03012BF3D8012038BD90F8CF31A3B9F0
:10C12000806A03681B6A9847B0F5005F28BF4FF428
:10C13000005085B2207C4FF051FB0C30854206D276
:10C14000207C4DF00FFF002038BD0025F2E720468F
:10C15000FFF78AFFDFE70000F0B52DED028B8B8B38
:10C16000BD2B87B00D4600F0AF8036D8162B00F0FF
:10C170008F800FD8142B00F0B48000F2B580112B03
:10C1800000F0AC80294607B0BDEC028BBDE8F04062
:10C1900054F010BF732B00F0AA80B22B00F0CC80BB
:10C1A000202BEFD1D1ED007AF5EEC07AF1EE10FA46
:10C1B00040F3C0809FEDBF7AF4EEC77AF1EE10FA3B
:10C1C00000F2B880FCEEE77A42F23242CDED037A1B
:10C1D000B9499DF80C308B5274E04AF211429342F7
:10C1E00000F008812FD8B3F5967F00F0D28040F69A
:10C1F000D812934200F0EE80D12BC3D1D1ED017A59
:10C20000FCEEE77ACDED037AD1ED007AFCEEE77A29
:10C21000CDED047AD1ED047A9DF81020FCEEE77A9A
:10C22000CDED057A9DF814300093D1ED030A91ED20
:10C23000020A9DF80C3001469F480FF025FB07B01D
:10C24000BDEC028BF0BD4AF21342934200F016811E
:10C25000C0F0E4804AF26862934293D1974875F047
:10C2600061FF002866D0D5ED017AFCEEE77ACDEDCE
:10C27000037A9DF80C30012B00F0A680C0F09E8060
:10C28000022B57D195ED030A8C4875F09FFF19E0FA
:10C29000D1ED027A9FED917A91ED060A864AF0EE91
:10C2A000E77AF4EEC77A42F60C13DFED857AD058C0
:10C2B000F1EE10FA4CBF0121002120EE270A11F007
:10C2C000D1F8B8B30020BAE77E482EF0CFFB88B390
:10C2D00002220321784804F069FBF2E702220521DB
:10C2E000F8E702220621F5E702220921F2E7D1ED63
:10C2F000007AF5EEC07AF1EE10FA1BDB9FED727A50
:10C30000F4EEC77AF1EE10FA14D891ED030ADFEDDE
:10C31000737AB0EEC07AB4EEE77AF1EE10FAB0EECE
:10C32000678A00F10681F7EE000A28F0D5FD0028A3
:10C3300040F0FF80042082E7D1ED017AF5EEC07A6B
:10C34000F1EE10FAF6DD91ED007ADFED606A9FED17
:10C350005C0A594BB4EEE67AF1EE10FA07DD43F2CF
:10C36000645227EE800A98586FF036F8AAE7DFED9E
:10C37000586A43F26452B4EEE67AF1EE10FA27EE10
:10C38000800A985802DD6FF017F89BE76FF032F8DB
:10C3900098E7494C02220321204604F007FB0028BD
:10C3A000C8D001212046FDF72BFF43F65C03E35C78
:10C3B000012B87D043482EF045FB83E742F2184318
:10C3C0003D4A0020D0543AE795ED020A3B4875F00B
:10C3D000E9FE77E7D1ED017A3E48FCEEE77ACDED54
:10C3E000037A9DF80C30012B0CBF0021012162F073
:10C3F00053F967E7304842F62513C35CDB073FF586
:10C4000061AF0222052104F0D1FA00287FF45AAF6F
:10C4100002222948114604F0C9FA53E7264842F699
:10C4200025130646C35C13F001047FF44BAF42F6BC
:10C430002C13C35893F86D702FB90122114626486A
:10C44000FDF7A0FD3EE742F604130222C356002B7F
:10C4500012DA052104F0AAFA00283FF433AF95ED73
:10C46000000ADFED177A42F60C13012120EE270AAD
:10C47000F05810F0F7FF25E70921CCE70E4B42F604
:10C4800025121E46985C10F001047FF41BAF42F6A3
:10C490002C129A5892F86D20002A3FF413AF42F6FE
:10C4A00004129B56002B1BDA012208210A48FDF7D3
:10C4B00029FE07E700007F43C0290120CC4D012061
:10C4C0000000C8421C6201200000B4439A99394020
:10C4D0003333F33FE86001201050012000000034A6
:10C4E000D1ED007A1FED037AF0EEE77AF4EEC77A29
:10C4F000F1EE10FA0FD442F60C14305903681B68A1
:10C50000984704283FF4DEAE305903681B6898470B
:10C5100014283FF4D7AE02221121124804F046FA43
:10C5200000283FF475AF40F6C4110F4807F032FC05
:10C53000C8E6D5ED037AD5ED010A95ED000A0B4862
:10C54000F4EEC87AD5ED027AFDEEE77AF1EE10FA54
:10C55000CDED037AACBF012200229DF90C1001F051
:10C5600093FFAFE6C02901208C630120246A0120DB
:10C5700008B591ED007AF6EE007AB4EEE77AF1EEC6
:10C5800010FA06DD012205210348FDF7BBFD00205E
:10C5900008BD042008BD00BF105001202DE9F04F58
:10C5A0002DED028B8A7A4B7A43EA0223CA7A43EA58
:10C5B0000243872BA5B006460C461ED8862B48D2D0
:10C5C000542B00F01E8109D8452B47D0522B00F088
:10C5D000A4802146304654F03DFB3AE0562B00F053
:10C5E00041826D2BF5D10821984810F057FB214668
:10C5F0000246304650F050FC2BE0F62B29D023D8D1
:10C60000A62BF0D0F32BE4D1CD783D2D28BF3D25CE
:10C610003D22002114A8B2F013F904F10C012A46BE
:10C6200014A8B2F0C9F8149C002C40F03783159B75
:10C63000002B40F03383169B002B40F02F83012109
:10C64000824802F05FFB04E0A3F51C53113B022B70
:10C65000BFD825B0BDEC028BBDE8F08F7B4DCA7909
:10C6600041F65423EB5E9A42F3D1CA780B2A4FF07D
:10C67000000728BF0B220C3114A815971497CDF88A
:10C680005770B2F099F841F652239DF85A20EB5EAC
:10C690009A42DED1BDF95480B845DADB7BF006FE64
:10C6A00004468DE8900042F2F441BDF952206958E9
:10C6B0009FED670A4FF47A73304653F031FE012341
:10C6C00042F2F841019300946958BDF950209FED62
:10C6D000600A4FF47A73304653F022FE8DE89000E2
:10C6E00042F2FC419FED5B0A69583B4642463046A8
:10C6F00053F016FE8DE8900005F51455BDF956204F
:10C700009FED530A29684FF47A73304653F008FEC0
:10C7100053F038FEC0F8A8419BE7CD78272D28BFFD
:10C7200027252722002114A8B2F08AF804F10C0171
:10C730002A4614A8B2F040F8444C42F60C13E058D4
:10C7400003685B6A9847002883D09DF8765015F0FF
:10C75000C00F7FF47EAF404809F09CFB0646E8B16D
:10C7600040F23340B7EE001AFFEE000A9DED1C0ABE
:10C7700028F0B6FC159B1093169B1193179B1293F0
:10C7800085F00402189B1393DDED1B0A32483346F3
:10C79000C2F3800210A909F087FB5AE7DFED2F0AE8
:10C7A0009DED1C0A40F23640B7EE001A28F098FCC6
:10C7B000F6EE000AB0EE408A28F08EFBF0B9F6EEF5
:10C7C000007AB4EEE78AF1EE10FA43F2645309DD21
:10C7D00078EE677AE35877EEA77A93ED080A27EEAA
:10C7E000800AC7E7E35877EEC87A93ED090A77EE37
:10C7F000A77AB0EEC00A20EE670ABBE79FED170AE2
:10C80000B8E7CD78352D28BF35253522002114A86D
:10C81000B2F016F82A4604F10C0114A8B1F0CCFFCE
:10C8200042F60C13094AD05803685B6A98470028FF
:10C830003FF40FAF9DF88440012C13D0E31F022B6F
:10C8400010D90121044809F0BDFA02E7C0290120EE
:10C850000000FA4400007A44E8640120000000006F
:10C860000000C842BDF880704FF0000A07F0380998
:10C8700007F4E07807F4806607F4006517F007070F
:10C88000CDF824A0CDF828A0CDF82CA026D11FEDFE
:10C890000C6A9DED167ADDED177ADDED156A27EE4F
:10C8A000067A67EEC67A66EE866AA4F10803012B63
:10C8B000CDED096A8DED0A7ACDED0B7A04D80AAA7E
:10C8C00009A96248FDF73EFDE31F022B06D8604828
:10C8D0006FF036FC014609A82BF0C4FCCDF830A05F
:10C8E000CDF834A0CDF838A0B9F1000F1CD19FEDE0
:10C8F000596A9DED197ADDED1A7ADDED186A27EE99
:10C90000067A67EEC67A66EE866AA4F10803012B02
:10C91000CDED0C6A8DED0D7ACDED0E7A04D80DAA11
:10C920000CA94A48FDF70EFDCDF840A0CDF844A073
:10C93000CDF848A0B8F1000F1CD19FED466A9DEDDF
:10C940001C7ADDED1D7ADDED1B6A27EE067A67EEB7
:10C95000C67A66EE866AA4F10803012BCDED106A53
:10C960008DED117ACDED127A04D811AA10A93748AD
:10C97000FDF7E8FC6EBBDFED387A9DED1E0A20EE78
:10C98000270ADFED347A083C012C20EE270A8CBF01
:10C99000002401240DBBDFED307ADDED1F0A60EECF
:10C9A000A70ADFED2C7A60EEA70ACFB9B9F1000F24
:10C9B0003BD1B5FA85F5B6FA86F66D09760902948B
:10C9C0000195009610AB0CAA09A9244809F076FE3F
:10C9D0003FE600249FED220ADCE7DFED210AE4E7D1
:10C9E000B9F1000F0FD10123B5FA85F502936D0956
:10C9F000B6FA86F3019400955B0910AA0CA91748B2
:10CA000009F0ECFD25E6B8F1000F7FF41AAF012321
:10CA10000193B6FA86F2B5FA85F300945B095209E0
:10CA200010A90E4809F080FD13E6B8F1000F3FF49D
:10CA300008AFB5FA85F3B6FA86F28DE890005B0987
:10CA4000520909A9054809F0CBFB02E6C0290120DB
:10CA5000FC5E01200000C842E02E6542E86401202F
:10CA600000000000CD78352D28BF35253522002166
:10CA700014A8B1F0E5FE2A4604F10C0114A8B1F0A7
:10CA80009BFE42F60C138E4AD05803685B6A9847A7
:10CA900000283FF4DEADBDF880400CAD04F0070384
:10CAA0002846059317F04AFF059B04F0380904F463
:10CAB000E07804F4806704F400644BBBDDF854A014
:10CAC000DDF858B05046594629F0BEFA00283FF428
:10CAD000B8AE09AA9DF88410304653F061FB0028D7
:10CAE0003FF4AFAE9FED777ADDED177A099B0093A7
:10CAF00067EE877A10AEFDEEE77A5A4617EE903A67
:10CB00005146304617F03AFF96E80F0085E80F00CF
:10CB10000026069607960896B9F1000F13D19FEDEF
:10CB2000696A9DED197ADDED1A7ADDED186A27EE56
:10CB3000067A67EEC67A66EE866A8DED077ACDEDE7
:10CB4000066ACDED087A09960A960B96B8F1000FA1
:10CB500013D19FED5C6A9DED1C7ADDED1D7ADDED54
:10CB60001B6A27EE067A67EEC67A66EE866A8DED58
:10CB70000A7ACDED096ACDED0B7A002F48D19FEDF1
:10CB8000520A9DED1E8A9DF884A028EE008A9FED32
:10CB90004D0AAAF1080ABAF1010F28EE008A8CBFEB
:10CBA0004FF0000A4FF0010A002C36D1DFED460AA3
:10CBB000DDED1F8A68EEA08ADFED420A68EEA08AEA
:10CBC000059B6BBBB9F1000F53D1284617F0E6FE69
:10CBD00003283FF436AE10A92846109611961296F7
:10CBE00018F032F800283FF42CAEB4FA84F464094B
:10CBF000B7FA87F3CDF804A00094F0EE680AB0EE1F
:10CC0000480A5B0906AA10A9304809F0C7FD20E5CB
:10CC10004FF0000A9FED2E8AC6E7DFED2D8ACFE7A1
:10CC2000B9F1000F11D10123B4FA84F4029364091D
:10CC3000B7FA87F3CDF804A00094F0EE680AB0EEDE
:10CC4000480A5B0909AA06A9D9E6B8F1000F7FF4E2
:10CC5000F8AD01230193B7FA87F2B4FA84F3CDF863
:10CC600000A0F0EE680A5B09B0EE480A520909A973
:10CC7000D7E6B8F1000F3FF4E4ADB4FA84F3B7FAA5
:10CC800087F2CDF800A0F0EE680A5B09B0EE480A22
:10CC9000520929460D4809F065FBDAE410A817F09F
:10CCA0004DFE159B13930A22169B054893FBF2F346
:10CCB00010A901221294119301F0A8FFC9E400BF4A
:10CCC000C02901200000C842E02E6542E86401202E
:10CCD0000000000010B590F8551304461AF036FF16
:10CCE0007C23C0B203FB004090F8510010BD00004F
:10CCF000F0B543F25C56044680599FED3E0A8BB076
:10CD00003C302BF08FFA0AAACDED080A8DED091AF6
:10CD10008DED070A12E9070001AD85E8070004ABB5
:10CD20009DED030A83E8070028F070F904F58650AA
:10CD3000294618308DED030A43F2605712F094FC37
:10CD400042F62C1142F24C6061582058E359A25926
:10CD500012F084FD4FF4805120460FF09FFF002811
:10CD600045D0A05903689B68984704F514550435CD
:10CD700000F19002A621284649F034FFA05903682B
:10CD8000DB689847A72100F19002284649F02AFF66
:10CD9000A05903681B699847A82100F19002284612
:10CDA00049F020FFE259A921284602F5EC7249F02A
:10CDB00019FF202120460FF071FFC0B142F60C137D
:10CDC000E05803681B69984718B920460AF0B6FA7C
:10CDD00068B143F26056AB21A25928469C3249F013
:10CDE00001FFA259AC21C432284649F0FBFE0BB02A
:10CDF000F0BD00BF9F0CB34510B5044604F5865442
:10CE000014F0B6FD183414F0AFFD204612F09AFB72
:10CE10002046BDE8104012F0BFBC00007047000083
:10CE20007FB50E464FF6FF71044615460FF036FFEC
:10CE3000E8B1102200216846B1F002FDA3238DF86D
:10CE4000003095238DF8013003238DF802307BF0FC
:10CE500035FACDF8030004F51450CDF80710102270
:10CE6000694604308DF80B6003954AF0F5FC04B078
:10CE700070BD00007FB50E464FF6FF7104461546A3
:10CE80000FF00CFFE8B1102200216846B1F0D8FC89
:10CE9000A3238DF8003095238DF8013004238DF8FD
:10CEA00002307BF00BFACDF8030004F51450CDF8F6
:10CEB00007101022694604308DF80B6003954AF084
:10CEC000CBFC04B070BD000070B52DED048B1824B0
:10CED00086B0224605460E4668460021B0EE409ACE
:10CEE000F0EE608AB0EE418AB1F0AAFCA3238DF87F
:10CEF000003095238DF8013007238DF802307BF048
:10CF0000DDF9CDF8030005F51450CDF807102246E1
:10CF1000694604308DF80B608DED039ACDED048ADF
:10CF20008DED058A4AF024FC06B0BDEC048B70BD83
:10CF3000F8B542F6281390F82524C15C242303FB9E
:10CF40000202044692F84D3401F0010123B192F837
:10CF50004E340BB192F84F34994210D042F6281556
:10CF6000625D63F3000262554BF038F9635D13F0C4
:10CF7000010F0CBF0422002212214BF0ABF842F645
:10CF8000281504F22C573846665DFFF7A3FEC6F35A
:10CF90004006864211D03846FFF79CFE635D60F381
:10CFA000410363554BF01AF9635D13F0020F0CBF98
:10CFB0000422002203214BF08DF842F6281294F847
:10CFC0005C13A35CC3F38100884209D061F383033F
:10CFD000A3544BF003F94321BDE8F8404BF05AB895
:10CFE000F8BD000030B52DED0A8B2F248DB0224600
:10CFF000054600216846B0EE40CAF0EE60BAB0EED9
:10D0000041BAF0EE61AAB0EE42AAF0EE629AB0EE3A
:10D01000439AF0EE638AB0EE448AB1F011FCA32388
:10D020008DF8003095238DF801300A238DF80230F9
:10D030007BF044F91CEE103ACDF80B301BEE903A21
:10D04000CDF80F301BEE103ACDF813301AEE903AAF
:10D05000CDF817301AEE103ACDF81B3019EE903A91
:10D06000CDF81F3019EE103ACDF8233018EE903A73
:10D07000CDF80300CDF8273005F5145018EE103A1E
:10D08000CDF80710224669460430CDF82B304AF01F
:10D090006FFB0DB0BDEC0A8B30BD000070B52DEDFF
:10D0A000088B28248AB0224605460E466846002191
:10D0B000B0EE40BAF0EE60AAB0EE41AAF0EE619A8E
:10D0C000B0EE429AF0EE628AB0EE438AB1F0B8FB5D
:10D0D000A3238DF8003095238DF801300B238DF8B4
:10D0E00002307BF0EBF8CDF8030005F51450CDF8D5
:10D0F00007102246694604308DF80B608DED03BAA7
:10D10000CDED04AA8DED05AACDED069A8DED079A19
:10D11000CDED088A8DED098A4AF02AFB0AB0BDECF4
:10D12000088B70BD70B51B2688B0324604460021BE
:10D1300001A8B1F085FBA3238DF8043095238DF869
:10D14000053008238DF806307BF0B8F842F62C1530
:10D15000CDF807006059CDF80B1003681B6E984797
:10D1600010EE103A6059CDF80F3003685B6E9847A7
:10D1700010EE103A6059CDF813300368DB6E984713
:10D1800010EE103A6059CDF8173003681B6F9847BE
:10D1900004F5145010EE103A324601A90430CDF8CF
:10D1A0001B304AF0E5FA08B070BD00002DE9F047E9
:10D1B00031278EB0164680463A468A4601A800219D
:10D1C000169D179C9946B1F03BFBA3238DF80430C4
:10D1D00095238DF8053009238DF806307BF06EF825
:10D1E0003368049373680593B36806932B68CDF88E
:10D1F0001D306B68CDF82130AB68CDF82530236841
:10D20000CDF80700CDF8293008F514506368CDF843
:10D210000B10CDF82D303A46A3688DF80FA001A968
:10D2200004308DF81C90CDF831304AF0A1FA0EB0E0
:10D23000BDE8F08730B542F62C130446134889B098
:10D2400004F51455C058694604351E2271F06AFD74
:10D250006A460F4928464AF0FFFB42F60C13E05895
:10D2600003681B68984704F5D25301461A7828468C
:10D270004AF014FC04F58650183012F00DFE04F547
:10D2800082701DF0F3F809B030BD00BFC029012045
:10D29000FE250D0800F514509A22024904304AF088
:10D2A00063BE00BF64330D082DE9F0412DED028B04
:10D2B00042F60C130446C058DFED4C8A036892B066
:10D2C0005B6998470027002840F08C8043F2605348
:10D2D000E358D3ED947A87EEA88AD3ED9A7AFDEEDF
:10D2E000E77ACDED017ABDF9046004F5175808F12D
:10D2F0002C0803A940460FF0CBF918B94AF06EFF8D
:10D300003B4B03933722002104A8B1F099FAA323E1
:10D310008DF8103095238DF811307AF0CFFF42F65A
:10D320002C1543F25C53CDF81300E3586059D3F841
:10D33000AC20D3F8B030CDF817103830CDF81B2022
:10D34000CDF81F304BF0ECFD0346B7EE001ADFEDD1
:10D35000290A93ED000A7C2027F0C2FE10EE103A55
:10D360006059CDF823300368DB68984710EE103A17
:10D3700004F55455CDF827303C3518EE103A2846C0
:10D38000CDF82B306EF0E0FE80EE280A404610EE1D
:10D39000103ACDF82F3004F554531B68CDF83330D4
:10D3A000039BCDF837300FF099F910EE103A28466C
:10D3B000CDF83B30CDF83F70ADF843606EF0C8FE5D
:10D3C000FDEEC07A04F5145017EE903A372204A906
:10D3D0000430ADF845304AF0CBF912B0BDEC028B09
:10D3E000BDE8F081002608EE107A7EE70000C84212
:10D3F0002292CA7F00000000B0F900309FED097A48
:10D4000001805B1A07EE903AF8EEE77AF0EEE77AE1
:10D41000F4EEC77AF1EE10FA4CBF0121002145F07D
:10D420005DB900BF00000034F8B5294D45600446E1
:10D43000083063F05FFB0023E36623676367254AD8
:10D44000C4F89430244BC4F88C20C4F898304FF0C2
:10D450008042224BC4F89C3005F58B61C4F89020C3
:10D4600004F1A00072F0E0FC04F5BA7054F0D6FFAD
:10D470001B4F1C4BC4F8743104F5C8760025701995
:10D4800054F068F977512835B5F5207FF7D104F5C8
:10D49000826055F075FC002104F5096072F0BAF85D
:10D4A000114D04F6441074F02DFEC4F8645904F6CE
:10D4B000681075F00DFAA5F5CC73C4352046C4F894
:10D4C000F839C4F8045A094946F052F82046F8BD24
:10D4D000703501200000C8410AD7233C0000E0401D
:10D4E000247D0D08407D0D08E06801209C640D0836
:10D4F00030B52DED028BADF5477DC0225749584C14
:10D500009FED588A4EA8B1F057F96022564936A8C7
:10D51000B1F052F94FF4907254497EA8B1F04CF931
:10D520000FCC06AD0FC594E80F00103485E80F004E
:10D530000FCC16AD0FC50FCC0FC50FCC0FC594E89F
:10D540000F0085E80F0000244EAB18190021B0EE43
:10D55000480A103445F032FCC02CF5D19FED448AC6
:10D56000002436AB18190021B0EE480A103445F0FB
:10D5700025FC602CF5D100247EAB18190021B7EEF4
:10D58000000A103445F01AFCB4F5907FF4D1002164
:10D590009FED380A06A845F011FC00210AA89FED6E
:10D5A000350A45F00BFC344B0FCB02AC84E80F007E
:10D5B00001A9204645F0D2FB90B19DF904309FEDC2
:10D5C0002F7AE06807EE903AF8EEE77AB0EE000ABC
:10D5D000A7EE870AF7EE007A87EE800A46F09CFAFB
:10D5E000002416AB181900211034B7EE000A45F0DC
:10D5F000E5FB402CF5D1224D22480D2146F0CCFA16
:10D600000FCD26AC0FC40FCD0FC40FCD0FC495E8BE
:10D610000F0084E80F00002426AB18190022012116
:10D62000103445F05DFC402CF6D1174D0FCD0EACFB
:10D630000FC495E80F0084E80F000EA80022012116
:10D6400045F04EFC0022012112A845F049FC55F09E
:10D650007DF90DF5477DBDEC028B30BDEC1B0D084F
:10D660002C1E0D085C8FA23FAC1C0D080C1D0D0874
:10D67000530469396F12833A8C1E0D08CDCCCC3D12
:10D680009C1E0D084C710D08DC1E0D082DE9F043A1
:10D6900091B00DF106011D2055F01AFB002800F095
:10D6A00099809DF806305C4A0133DBB211210BA84A
:10D6B0008DF8063079F0ACFF00220DF107010BA8C0
:10D6C00044F0F8FE9DF80630544A112106460BA896
:10D6D00079F09EFF00220DF107010BA844F0EAFE4D
:10D6E0009DF806304E4A112107460BA879F090FFAD
:10D6F00000220DF107010BA844F0DCFE9DF8063076
:10D70000484A03F03F03112180460BA879F080FFBF
:10D7100000220DF107010BA844F0CCFE0546002EB7
:10D7200058D0002F56D0B8F1000F53D0002851D058
:10D73000304645F065F800284CD1384645F060F891
:10D74000002847D1404645F05BF8002842D12846E2
:10D7500045F056F800283DD1334C94E80F000DF108
:10D760000C0E10348EE80F0094E80F000DF11C0928
:10D7700089E80F0002A9704645F0F0FA08B90024C4
:10D7800001E0BDF9084002A94846A4B245F0E6FA16
:10D7900000283BD0BDF80810FCB9D9B140F2E244F2
:10D7A0008C420FFA81F924B21DDC49463846FFF756
:10D7B00023FE21463046FFF71FFE21464046FFF775
:10D7C0001BFEB5F900302BB100232B800121284628
:10D7D00044F084FF11B0BDE8F08340F2D663002925
:10D7E00008BF1946DCE721463846FFF705FE4946E3
:10D7F0003046FFF701FE49464046FFF7FDFDB5F90B
:10D800000030012BE6D001212980E0E7002CE1D097
:10D8100040F2D661C4E700BFC8670D08D4670D08A1
:10D82000E0670D08ED670D08FC1E0D082DE9F04FAF
:10D830002DED028B41F63843D3B0C356062B40F092
:10D840009F80502290492AA8B0F0B6FF00242AAB4E
:10D8500018190021B7EE000A103445F0AFFA502C29
:10D86000F5D107A92AA845F079FA08A980462EA87B
:10D8700045F074FA09A9074632A845F06FFA0AA9DB
:10D88000064636A845F06AFA804B05460FCB1AAC1F
:10D8900084E80F0005A9204645F060FA002857D01B
:10D8A0000021B7EE000A204645F088FA8022784928
:10D8B0009FED788A2AA8B0F07FFF00242AAB1819C0
:10D8C0000021B0EE480A103445F078FA802CF5D1EA
:10D8D000714D0FCD0AAC0FC40FCD0FC40FCD0FC4C7
:10D8E00095E80F0084E80F0000240AAB1819002106
:10D8F000B7EE000A103445F061FA402CF5D1002251
:10D9000009A9664844F0D6FD20B1B0F90030642B77
:10D9100000F3A380624D9FED5F8A0FCD1AAC0FC458
:10D920000FCD0FC40FCD0FC495E80F0084E80F0092
:10D9300000241AAB18190021B0EE480A103445F043
:10D940003DFA402CF5D153B0BDEC028BBDE8F08F11
:10D95000B8F1000F03D117B90EB9002DA6D00022DF
:10D9600006A9504844F0A6FD00289FD044F048FF87
:10D9700000289BD19FED4C0A4A4846F05BF995E799
:10D980000B2B93D1A02249492AA8B0F015FF0024FF
:10D990002AAB18190021B7EE000A103445F00EFA30
:10D9A000A02CF5D104A92AA845F0D8F905A98346E9
:10D9B0002EA845F0D3F906A9824632A845F0CEF943
:10D9C00007A9814642A845F0C9F908A9804636A8AA
:10D9D00045F0C4F909A907463AA845F0BFF90AA9D4
:10D9E00006463EA845F0BAF91AA9054646A845F0EC
:10D9F000B5F90446BBF1000F08D1BAF1000F05D10B
:10DA0000B9F1000F02D1B8F1000F0ED000220DF1D4
:10DA10000F01244844F04EFD38B144F0F1FE20B926
:10DA20009FED210A1F4846F005F927B91EB915B91F
:10DA3000002C3FF43BAF00220DF10F011C4844F0D5
:10DA400039FD00283FF432AF44F0DAFE00287FF4BD
:10DA50002DAF9FED150A16488FE707EE903A9FED20
:10DA60000D7A0E48F8EEE77A67EE877AFCEEE77AF1
:10DA7000CDED017ABDF8043000EE103AB8EE400A60
:10DA800046F0D8F846E700BF1C1F0D086C1F0D08B4
:10DA90001C200D08CDCCCC3D9C200D083F710D08FD
:10DAA000DC200D08B4710D08000000007C1F0D087B
:10DAB00034710D0873B5002206460DF107011E48AA
:10DAC00044F0F8FC0546A0B344F09AFE88BB9DF8EC
:10DAD0000730032B2DD141F68623F356022B01D0BC
