:020000040800F2
:100000000000012039AE0608CDAE0608114F0408E5
:10001000CDAE0608CDAE0608CDAE06080000000045
:10002000000000000000000000000000CDAE060847
:10003000CDAE060800000000CDAE0608A5B005084C
:10004000CDAE0608CDAE0608CDAE0608CDAE06088C
:10005000CDAE0608CDAE060841BF050855BF050860
:1000600051BF05084DBF050849BF0508557506086D
:10007000417506082D7506081975060805750608E8
:10008000F1740608DD740608CDAE0608CDAE06088C
:10009000CDAE0608CDAE0608CDAE060845BF0508B4
:1000A000396D0608F56D0608256D0608196E0608F7
:1000B000E56D0608D16D0608BD6D06089975060840
:1000C000A5750608817506088D750608CDAE06086B
:1000D000CDAE0608E56C0608D96C0608CD6C06089E
:1000E0003DBF0508CDAE0608CDAE0608116D060869
:1000F000716D06084D6D0608956D0608C9740608F1
:10010000CDAE0608CDAE0608A96D0608CDAE060830
:10011000C16C0608B56C0608CDAE0608353C06086D
:10012000B5740608A17406088D740608797406086B
:1001300065740608CDAE0608CDAE0608CDAE06083D
:10014000CDAE0608CDAE0608CDAE0608614A06085B
:10015000517406083D74060829740608A96C06083F
:100160006975060875750608CDAE0608CDAE060899
:10017000CDAE0608CDAE0608CDAE060800000000E4
:10018000CDAE0608CDAE06089D6C0608CDAE0608BD
:10019000CDAE0608CDAE0608CDAE0608CDAE06083B
:1001A0000000000000000000CDAE0608CDAE06083D
:1001B000CDAE0608CDAE0608CDAE0608CDAE06081B
:0801C000CDAE0608CDAE060825
:0801C800A8A9060001000000D7
:1001D000F04F022002080000040354511050022086
:1001E00001110000000076003050022001180000CC
:1001F00000001E0050500220011E000000000D00F3
:1002000070500220011F000000000E0090500220DC
:100210000120000000001E00B0500220011B000061
:1002200000000C00D0500220011C000000000E0055
:10023000F0500220011D000000000C0010510220AF
:10024000012A0100000018003051022001220000A4
:100250000000480050510220012300000000490026
:10026000705102200124000000004A009051022039
:100270000125000000004B00B051022001260000C3
:1002800000004C00D05102200127000000004D006A
:10029000F05102200128000000004E001052022000
:1002A0000129000000004F0030520220012D000003
:1002B0000000140050520220012E0000000029000E
:1002C00070520220012F01000000290090520220EC
:1002D0000130010000007000B0520220022B01002A
:1002E00000012C00D0520220023300000000140054
:1002F000F05202200134000000003C0010530220A4
:10030000013200000000400030530220013700009D
:100310000000200050530220013800000000290096
:020000040801F1
:1000000009284FF00103F0B407D903EB83035B0029
:10001000B0FBF3F2092AF8D84BB30026DFF858C03A
:10002000ACFB03720D46B0FBF3F4002C03FB140091
:100030004FEAD202D4BF0027012756B94FB9092B86
:100040003E4612D8303405F8014B00232B70F0BC2B
:100050007047092C06F10106CCBF57213021092B2E
:100060000C4405F8014B2946EFD91346D8E70D4655
:1000700000232B70F0BC7047CDCCCCCCF0B5002366
:100080000E680DE0BCF1050F17D9BEF1050F18D8A9
:100090000A2C16D103EB830316F8010B04EB430380
:1000A000A0F13005A0F1610CA0F1410EA0F13704E0
:1000B000EFB2092FE6D82C46ECE7A0F157040A2C42
:1000C000E8D00E601360F0BD2DE9F04F02238A46A0
:1000D0008B462DED108B93B0DFEDBB8A0E9303465C
:1000E000109004330F9211934FEADA06109DDDF859
:1000F00044C04FEACA0305EB46110D96F0004FF0DD
:10010000000E01EB061437010390A6EB8602009463
:10011000029706EB460804EBC202041D381D06EBED
:1001200086072C44C6EBC60901972844019D02EBC3
:1001300046174FEAC909ED0001EBC60601954FEAE3
:10014000081504954FEAC80505950D9D4FEA451819
:10015000009DD1ED006AD64495ED007A96ED003A07
:10016000F34597ED004A1CED015A50ED017A14ED6C
:10017000016A75EE262AD2ED005A35EE665A76EE01
:10018000033A77EE876A36EE436A77EEC77A35EE42
:10019000847A75EEC45A72EEA64A72EEE62A76EEBC
:1001A000656A33EE874AF0EE451AA6EEE85A34EE59
:1001B000843A74EEC44A36EE256A0CED013AB0EE8C
:1001C000672AC1ED004AE6EEA81AD7ED015AB0EE53
:1001D000453AD5ED010AA6EE282A96ED015AE6EE3B
:1001E000687AD4ED006A33EEC76A92ED014AD0ED29
:1001F000004A76EEC53A34EE658A91ED010A76EE54
:10020000856A9CED007A34EEE05A34EE254A33EEEE
:10021000881A77EE405A74EEA04AF0EE450A73EE63
:10022000C83AA1EE685AE1EE280A37EE007AB0EE3D
:10023000651AE3EEE85AA3EEA81A76EE843A76EE53
:10024000C46A37EE244A37EE647A32EEA60A74EEB8
:10025000234A72EEE66A34EE634A77EE462ACCED24
:10026000004A36EE077A9C4481ED014A71EEA03ACD
:1002700000ED010A33EE054AC5ED006A71EEE04A71
:10028000C0ED002A33EE455A85ED017A31EE426A1F
:1002900035EEE77A44ED013A72EE016AC7ED004AA5
:1002A00077EEA57A86ED004A194482ED005A1D4486
:1002B00084ED006A1844C7ED016A1C4486ED017A9A
:1002C0001F44C2ED017A1E441A443FF642AF0D9A14
:1002D000072A40F2A081039A08F10808109F09F14B
:1002E00008000832019E049D94463A460836059C53
:1002F00042440835083402990A9207EB0C020C318B
:100300004FF000080992BA1908927A1907923A191F
:1003100006923A1805927A18039207F10C02049299
:10032000012202920E9ADDF80CC090440F9A049FAD
:1003300002EBC802059EA8EB880E069D02EBC801E1
:1003400092ED00DA079C01EBC802D1ED00CA0898D3
:1003500002EBC80192ED00CA01EBC802D1ED00BA70
:1003600002EBC80192ED00BA01EBC802D1ED00AA80
:10037000099902EB0E1E92ED00AA0A9A0EEBC8092B
:10038000DEED019A0B9209EBC80299ED019A0C91EE
:1003900002EBC80992ED018ADDF808E009EBC8021A
:1003A00099ED010A02EBC809D2ED010AD9ED017AF3
:1003B00009EBC802CDED007AD2ED017ADDE90B211F
:1003C000CDED017A02E000BFF304353FD0ED003AF5
:1003D000D64492ED007AD4ED007AF34595ED006AAB
:1003E000D6ED006A57ED014A1CED015A91ED004A25
:1003F00034EE872A74EEC74A97ED00FA35EE277A75
:1004000074EE232A35EE675A76EE267A72EE07EA04
:1004100036EE666A32EEA73A34EE634A32EE472A87
:100420007EEE836A34EE067AB0EE45EA47ED016A65
:1004300034EE464AD0ED016AA7EE685A91ED016AA2
:10044000A7EE28EAD6ED013AF0EE64DA95ED017AEE
:1004500076EE66FA92ED011A76EE266A37EE636A58
:100460007FEE415AE4EE28DA72EEE72ADCED007AFC
:10047000E4EE684A94ED014A37EE237A77EEC41A27
:100480007FEEC63A77EE847A3FEE866AB0EE654A32
:10049000E3EEE85A3FEE01FAA3EEA84AF0EE613A25
:1004A000E6EE681A36EE871AE6EE283A36EEC77A96
:1004B0003EEEC33A74EE4EEAB0EE616A7FEE271A62
:1004C0007FEE677A72EE076A31EEC1FA32EE477A52
:1004D00037EEE22A72EEA77A7DEEA32A7DEEE33AAA
:1004E00075EEC5DA35EE255A60EE0F5A63EE40FA26
:1004F0003EEE044AEBEE835A34EE86EA74EEC64AC8
:1005000026EEC96AEBEE8FFA9DED00FA71EE811AC4
:10051000B0EE653A69EE025AACEE826A9DED002AB1
:100520002FEE27FAC7ED001AECEEA65A82ED003A3C
:1005300027EE422AC2ED01FA69EEAE6A1F44AAEE26
:1005400087FA1A4422EEE97A8CED006AAAEEA72A0D
:10055000DDED017AEDEE226ADDED012AADEE2E7AB7
:100560004CED015A67EE847A9C4463EEE22A84EDF6
:1005700000FA6EEE60EAEAEE237A84ED012AEAEEF2
:10058000042AC1ED006AEBEE2DEA81ED017A60EEFE
:10059000AD3A1C4428EE054A194464EEC8DAEBEE85
:1005A0000E3AC6ED007AACEE244AC6ED012AECEE16
:1005B00005DA1E44C0ED003AC0ED01EA184485EDAD
:1005C000004AC5ED01DA1D443FF600AF0A99029AD0
:1005D000083101320A91099902920831099108996A
:1005E0000831089107990831079106990831069159
:1005F000059908310591049908310491039908314E
:1006000003910D9991427FF48DAE0E9B8A46DB00DB
:100610009BB20E9368E513B0BDEC108BBDE8F08F74
:1006200000B5034683B03221074A68468DF80010B2
:1006300019689B881268CDF80110ADF80530904715
:1006400003B05DF804FB00BFD8260120204B2DE944
:10065000F041002406465D6800F1070806E03946CF
:100660001B6898473C444645A4B214D016F8017B59
:1006700028467D21A7F17D03012B2B68EFD81B684D
:1006800098472B6887F0200128461B689847E9E7C0
:10069000E3B203EB1424FF2CFAD8C4F1FF04E4B254
:1006A000A4F17D03012B2B6805D9214628461B6840
:1006B000BDE8F041184728467D211B6898472B6804
:1006C00084F0200128461B68BDE8F041184700BFB0
:1006D000D82601200A4AD369F0B41C68002756695D
:1006E0004FF6F6751981611C9F81C3E900162070D1
:1006F000D36951691A689D81C3E90012F0BC704743
:10070000D8260120084B542230B403F121052424BB
:1007100003F13201056083F8204003684160591CF1
:1007200001601A7030BC7047D8260120F8B5CE1E83
:100730000F464FF6FF730239421E0446064412F874
:10074000015F5B1BB2429BB2F9D14354C5191B0A2E
:10075000054E05F8013C14F8011B706B4AF028FDAA
:10076000A542F8D1F8B2F8BDD826012070B50B46E5
:1007700082B0082460F05F021E14ADF8023000253C
:100780001B0E214668468DF801208DF804608DF817
:1007900005308DF80040ADF80650FFF7C7FF02B0F6
:1007A00070BD00BF062260F05F0330B583B00D4618
:1007B000002411466846ADF802508DF801308DF8DE
:1007C0000020ADF80440FFF7B1FF03B030BD00BF1B
:1007D000264A274B11680B40002B0CBF012002203A
:1007E0004B07536848BF0430D90701D50A3080B29F
:1007F0009A0701D5143080B2D90501D5283080B2CE
:100800005A0701D5643080B2190701D5C83080B2CB
:100810009A0602D500F5C87080B2D90602D500F557
:100820007A7080B2DA040ED500F5FA5080B29904DD
:1008300003D542F21072024490B29A0509D50D4BCD
:10084000034498B2704719050AD500F5FA6080B2E2
:10085000EDE75B0503D544F62063034498B2704787
:100860005A06E4D500F57A6080B2E0E70000002087
:1008700080FFFF1F409CFFFF022805D0A0F1010070
:10088000B0FA80F040097047054B93F8403023B927
:10089000044B1868C0F380007047102034F08CB906
:1008A000D82601200000002070B40D4E05460468D3
:1008B000002206F123039C4205D913F8011BA34231
:1008C00082EA0102F9D1631C06492B6022702A6872
:1008D000B06F6A60521A296070BC4AF047BC00BF12
:1008E000D8260120F8260120014B93F87C007047A0
:1008F000D8260120424B0138F0B4424CC825C4F838
:10090000803004F1850204F1BF014D2384F8845046
:1009100027E0DDB25BB2002B33DB6B00DDB25BB2F4
:10092000002B35DB6D00EBB26DB2002D37DB5D00C7
:10093000EBB26DB2002D39DB5D00EBB26DB2002D74
:100940003BDB5D00EBB26DB2002D3DDB5D00EBB239
:100950006DB25B00002DB8BF83F0D5038A42DBB2D5
:1009600038D010F8015F6B4002F8015B13F0800F84
:100970004FEA4303CDD083F0D5056BB2EDB2002B27
:10098000CBDA6D0085F0D5056BB2EDB2002BC9DA7C
:100990006B0083F0D5035DB2DBB2002DC7DA5B00DC
:1009A00083F0D5035DB2DBB2002DC5DA5B0083F0C6
:1009B000D5035DB2DBB2002DC3DA5B0083F0D50353
:1009C0005DB2DBB2002DC1DA5B0083F0D5035DB20E
:1009D000DBB2BEE70C4D402784F8BF30A5F14406DA
:1009E00084F8C0300FCE0FC50FCE0FC50FCE0FC588
:1009F00096E80F0085E80F0084F80471F0BC70479A
:100A0000C83E7BEAD82601209C270120F8B5224C5D
:100A100094F80511621892F80821002A3AD00023B0
:100A20001E4D4A1C0133A5FB0261490801EBC101BF
:100A3000511A621892F808210AB1092BF1D1CBB2F0
:100A400084F8053102680C260025571C076001EB6D
:100A500041071670026801EB8701561C066015708D
:100A60000D2205680E4E6F1C314407602B7051F04B
:100A70006FF894F805110120084B0A182144A3FBD4
:100A8000025381F80801C34003EBC303D31A84F86F
:100A90000531F8BD0B46D5E7D8260120398EE3385D
:100AA000EC27012038B50D460446FF2100682A4690
:100AB0005FF0EAFD22682A44226038BD02680E21F8
:100AC00070B5561C7F250024066015700268551C01
:100AD00005601470FFF7E6FF012070BD30B53E4C95
:100AE00085B094F88931012B01D005B030BD94F860
:100AF0008A01022826D0A0F10100B0FA80F0400956
:100B000048B36368002BF0D1D4F88C21002AECD0D4
:100B100094F84800032594F84110002892F9040045
:100B200001954FF4614214BF0825002500921A4632
:100B3000002908BF45F00105202102952DF002FA99
:100B40006060D2E794F840305BBB244B1868C0F378
:100B500080000028D5D16268002AC6D0D4F894312C
:100B6000934223D0D4F8A0319A4228D0D4F8AC31A3
:100B70009A4226D0D4F8B8319A4216D0D4F8C4316B
:100B80009A4220D0D4F8D0319A421ED0D4F8DC3129
:100B90009A421CD0D4F8E8319A421AD000236360FC
:100BA000A3E7102034F008F8AAE7032000EB400088
:100BB000002104EB8003D162C3E96511EEE7012057
:100BC000F4E70220F2E70420F0E70520EEE7062034
:100BD000ECE70720EAE700BFD8260120000000204C
:100BE00070B51C4E632200211B4D96F8F80152F09F
:100BF00023FAB6F81C32194E0446333B0922002171
:100C000086FB0360DB17C3EB201052F015FA64215A
:100C1000AA68C0F1090301FB0340910784B202D521
:100C200004F57A74A4B2D20702D504F5FA64A4B22A
:100C30002B685B0701D4204670BD152033F0BCFF44
:100C40000028F8D06B6813F4016FF4D104F57A64CE
:100C5000A4B2F0E7D8260120000000201F85EB5148
:100C60002DE9F047754C82B0E56900AFD5E9005336
:100C70005B1B002B40F3A080002384F83832704DBA
:100C80004FF0000CA5F1140205F1800305F5C07EBC
:100C900025611646C4F82852C4F82C52C4F81CE04A
:100CA000C4E90532C4E9EF33421800F10109C4E98F
:100CB000029203785909012940F0868003F00F0859
:100CC00013F0100311D1BCF1000F00F0968094F8DE
:100CD000CD13013101F00F0141457ED01846083790
:100CE00084F83832BD46BDE8F087821CC31C2569F4
:100CF0004FF0000CA2604278A3608078AB1835609A
:100D00004240736084F8381284F8CC233081A6F80E
:100D10000CC0D4E90292A2EB0902A3EB050AD5B2FA
:100D20005FFA8AFAEB1DAA4503F4FC73ADEB030DE1
:100D300068D25246494668465FF062FA09EB0A03F8
:100D4000524630466946A36050F002FF236930687E
:100D500094F8CC238342C6E9003009D001333360D4
:100D6000984213F8011C82EA0102F7D184F8CC23DF
:100D7000A3681B78934233D12169002370603A1D28
:100D80003160E16960690B8148608B81A06984F8FA
:100D900038327B6036F036FA013047D07B680BB1D1
:100DA00000209847E3690120616908371A68C3E9A0
:100DB0000012BD46BDE8F08794F838C2BCF1000FC0
:100DC0003FF45DAFA6696FE700210846FFF782FC9C
:100DD00001200837BD46BDE8F087D6E900539AE701
:100DE0000023B6F90810012084F83832FFF772FCAE
:100DF00001200837BD46BDE8F08760460837BD468C
:100E0000BDE8F0872A46494668465FF0F9F909EBE4
:100E1000050330462A466946A36050F099FE00203B
:100E2000083784F8CD83BD46BDE8F087E26902212A
:100E30001368581C10601970B0E700BFD826012055
:100E4000142901202DE9F04F324D83B0324C1F465A
:100E5000B5F9CE13B5F8D4C384FB0164C91716469F
:100E6000B5F8D0A3C1EBA4018CB2A44518D1D5F834
:100E7000D8234FF0000CD5F8DC13B6EB0208DFF8EE
:100E80009CB0B5F8E02363EB0109CC4508BFC3452E
:100E900034BF01230023524518BF43F00103A3B31D
:100EA000036834210022019003F1010CC0F800C056
:100EB00019702146036803F1010CC0F800C01A70D4
:100EC00050F074FE5146019850F070FE47F6FF71E5
:100ED000019850F06BFE47F6FF71019850F066FEE6
:100EE00047F6FF71019850F061FE47F6FF710198D7
:100EF00050F05CFE01980221FFF7D4FD0123A5F814
:100F0000D443A5F8E0A3C5E9F667184603B0BDE8E9
:100F1000F08F00BFD82601206766666680841E00B9
:100F2000604AD3682DE9F041054613F0800000F0D7
:100F30009B80906810F0020000F09680DFF874E16A
:100F40009EF8F811052940F29380632900F28E8003
:100F5000002089B2544F0646A7FB013CC3B20C46A1
:100F600001304FEADC0C9A00092C0CEB8C03A1EB4E
:100F700043031FFA8CF19BB203FA02F346EA03061D
:100F8000EAD8F6B2DEF80432484AD91782FB0323C6
:100F9000C1EB633399B2002900F082800024DFF8AE
:100FA00008C12046ACFB0138E3B20F4601344FEADA
:100FB000D8089A00092F08EB8803A1EB43031FFA16
:100FC00088F19BB203FA02F340EA0300EAD8C4B204
:100FD0004FF4F362BEF81432354942F20F7713FB37
:100FE00002F381FB0312D917C1EBA21189B2B942F6
:100FF00041D8D1B10020DFF8B0E00746AEFB0138A0
:10100000C3B28C4601304FEAD8089A00BCF1090FF0
:1010100008EB8803A1EB43031FFA88F19BB203FAA4
:1010200002F347EA0307E9D8B9B22B681720002278
:101030005F1C2F60187028462B685F1C2F601A7089
:1010400050F0B4FD4FF0FF31284650F099FD2B6869
:10105000284606215A1C2A601E702B685A1C2A60DA
:101060001C70FFF71FFD0120BDE8F081992689E77C
:101070000020BDE8F0810020DFF82CC00146ACFB69
:101080000732D20802EB8203A7EB430397B29BB26D
:1010900083400430102841EA0301F0D189B2C4E74B
:1010A0000C4695E700000020CDCCCCCC89B5F814D7
:1010B000D34D6210D8260120C64AD3682DE9F04FDF
:1010C000814613F0800083B000F07781906810F0C3
:1010D000020000F07281DFF81CA39AF8F831052BAA
:1010E00040F27281DAF8FC31BB4C002B0093BB4814
:1010F000B8BF5B42BA49A4FB0352920D00FB023316
:1011000002EB8202C3EB031302EB82029B0084FB1F
:101110000354DD17C5EBA45500FB053305EB820531
:1011200081FB0321ADB2DB17C3EBA111C5B10020D8
:10113000AC4F0446A7FB053CC3B22E4601304FEA34
:10114000DC0C9A00092E0CEB8C03A5EB43031FFA71
:101150008CF59BB203FA02F344EA0304EAD82504AF
:1011600089B2C1B100209F4F0446A7FB013CC3B226
:101170000E4601304FEADC0C9A00092E0CEB8C0372
:10118000A1EB43031FFA8CF19BB203FA02F344EA8A
:101190000304EAD82543DAF800B28F4C8BEAEB73EC
:1011A0008E488F4AA3EBEB73A4FB0361890D00FB10
:1011B000013301EB8101C3EB031301EB81019B00C0
:1011C00084FB0364DE17C6EBA45600FB063306EB74
:1011D000810682FB0312B6B2DB17C3EBA212CEB1BB
:1011E0000021804F0846A7FB063ECBB234460131B2
:1011F0004FEADE0E4FEA830C092C0EEB8E03A6EBB2
:1012000043031FFA8EF69BB203FA0CF340EA030085
:10121000E9D8060492B2CAB10021724F0846A7FB72
:10122000023ECBB2144601314FEADE0E4FEA830C88
:10123000092C0EEB8E03A2EB43031FFA8EF29BB236
:1012400003FA0CF340EA0300E9D80643DAF8043263
:10125000644A002B18460193B8BF5842624C634958
:10126000A2FB0030030AA4FB0343DB0901FB03F1EB
:10127000C1EBD00189B2C1B1002496462746AEFB2E
:10128000013CE3B20A4601344FEADC0C9800092A1B
:101290000CEB8C03A1EB43031FFA8CF19BB203FA16
:1012A00000F347EA0307EAD8B9B2BAF81682B8F1F0
:1012B000000F1AD00024DFF82CE12746AEFB083CD3
:1012C000E3B2424601344FEADC0C9800092A0CEBE9
:1012D0008C03A8EB43031FFA8CF89BB203FA00F3CC
:1012E00047EA0307EAD81FFA87F8BAF81C323D4AE2
:1012F000A2FB0307FF08632F28BF6327092B67D9C9
:101300004FF0000C92466046AAFB073E5FFA8CF352
:101310003A460CF1010C4FEADE0E9C00092A0EEB56
:101320008E03A7EB43031FFA8EF79BB203FA04F375
:1013300040EA0300E8D8C4B2009B019A002BCCBF5E
:1013400039233823BBF1000F4FEA226738DD27F03D
:101350007F07274A3B43934543F00207C8BF43F04A
:101360000607D9F800301620002203F1010CC9F855
:1013700000C018704846D9F8003003F1010CC9F8D4
:1013800000C01A7050F012FC2946484650F0F8FB95
:101390003146484650F0F4FB4846414650F006FCC2
:1013A000D9F8003001201A18C9F800201C70D9F8AB
:1013B00000301A18C9F800201F7003B0BDE8F08F84
:1013C00027F07F071F43CCE7002003B0BDE8F08F74
:1013D0000024B1E7000000206BCA5F6B806967FFE3
:1013E000D34D6210CDCCCCCCC55A7C0AA08601006E
:1013F000FFC99A3BD8260120036800224FF6FF71EF
:1014000070B57E255E1C044606601D7003685D1C79
:1014100005601A7050F0A6FB0D4B93F8463083B16F
:1014200027F008FB0146204650F09CFB204647F67B
:10143000FF7150F097FB20460821FFF733FB012096
:1014400070BD27F00DFB0146204650F08BFBEDE709
:10145000D8260120154BDB68C3F3022310B4C3F177
:1014600007041A1D042C28BF0424062A4FF0FF325B
:101470008CBF033B0023A240002821EA020101FAAD
:1014800003F108DB09010A4BC9B2034483F80013D6
:101490005DF8044B704700F00F000901054BC9B21D
:1014A000034419765DF8044B704700BF00ED00E07F
:1014B00000E100E0FCEC00E038B50D4B0D4A1B6884
:1014C000A2FB03239B09013BB3F1807F09D20A4AA7
:1014D000F0250A4C00200721536084F823509060C7
:1014E000116000214FF0FF30FFF7B4FF002038BD3E
:1014F00000000120D34D621010E000E000ED00E09C
:101500002E4A00232E4910B4C2F8FC334CF250345A
:10151000D2F8000404E0D2F800341B1AA34210D819
:10152000CB68DB03F7D4CC6814F0F2040DD1C868A3
:1015300010F0010002D001232046CB605DF8044B7F
:10154000704703205DF8044B7047CB689B0705D5B7
:10155000D2F8FC3343F02003C2F8FC33184BDB68AD
:10156000DC0605D5D2F8FC3343F01003C2F8FC3397
:10157000134BDB68980605D5D2F8FC3343F008031B
:10158000C2F8FC330E4BDB68590605D5D2F8FC33A4
:1015900043F00403C2F8FC33094BDB681B0605D596
:1015A000D2F8FC3343F00203C2F8FC33044BF222BE
:1015B00001205DF8044BDA60704700BFD826012097
:1015C000003C024070B40D4D0646046804E0D5F8B6
:1015D00000349B1A0A2B06D8A36931EA0303F6D11B
:1015E000002070BC704700232022032086F8412091
:1015F00086F8403086F8423070BC7047D82601200B
:1016000070B41C4D0646046804E0D5F80024521A54
:101610000A2A25D8A36913F02003F6D0102220232C
:10162000E261E361A3699A0701D50023A362A3697C
:10163000DB0710D5636804250F4A202101201340E1
:1016400000226360756486F8402086F8411086F8B1
:10165000422070BC7047A36943F00103A361E9E72E
:101660002022032086F8403086F8412086F8423058
:1016700070BC7047D826012000E800FE70B5134EFC
:1016800004460D460AE09B69DB0602D5FFF7B8FF6A
:10169000C8B9D6F800345B1B0A2B07D82368294643
:1016A00020469A699207EED5002070BD636C202118
:1016B000002203200B4384F84020636484F8411027
:1016C00084F8422070BD012070BD00BFD8260120E3
:1016D00070B5134E04460D460AE09B69DB0602D541
:1016E000FFF78EFFC8B9D6F800345B1B0A2B07D86A
:1016F0002368294620469A699206EED5002070BDDF
:10170000636C2021002203200B4384F84020636493
:1017100084F8411084F8422070BD012070BD00BFE4
:10172000D8260120014B5860704700BF5028004068
:10173000044BD3F81C24B3F8203451694B40536157
:10174000704700BFD82601200146024881F0010100
:101750004AF09ABBF42A01204309012200F01F003D
:10176000023B02FA00F0032B07D8DFE803F0020C7B
:1017700011070A4B5A6C104358647047074B5A6B59
:10178000104358637047054B1A6C10431864704738
:10179000024B1A6B10431863704700BF00380240B9
:1017A00007EE900A9FED477AB1F5C87F9FED466A34
:1017B000F8EE677ADFED455ACBBF78224FF4967288
:1017C00032236423C7EE273A07EE901A13449FEDA5
:1017D000405AA2F1320004EE900AB8EEE77A07EE22
:1017E000903AF0EE086AB8EEE74AC6EE077AF8EEED
:1017F000E44AB7EE006AF1EE032AA3EEA55AE3EE3F
:10180000E64AB6EE003A30B4B0EE457A82B0012432
:10181000A3EEA67A37EEC75A35EE475A2146013471
:1018200007EE904AB8EEE77A27EE237AC5EE077AFC
:10183000C4EE076AC4EE875A77EEC67A87EEA27ABC
:1018400076EEC66A77EE837AFCEEE55AFCEEE66A3F
:10185000FCEEE77ACDED015ACDED006A9DF804204B
:1018600017EE905A9DF800300F2A98BF0F2BBCEE50
:10187000C77A94BF0122002217EE103A581EEB1AC5
:1018800080B2013BFF288CBF002202F001029BB214
:101890000AB1FF2B05D90F2CC0D1002002B030BCFB
:1018A000704743EA017316EE902A43EA002015EED2
:1018B000903A12051B0402F07F6203F47F03104389
:1018C0001843EBE7286B6E4E0024744900000000BB
:1018D00000002A43F0B5ADF5815D00230F460146B7
:1018E00081B0FD2614463A460DF5815004AD0393B0
:1018F0000095CDE901036846ADF8086050F028F97D
:10190000009B694602222046CDE9005329F048FE9B
:101910000DF5815D01B0F0BD2DE9F047041E0D46C7
:1019200012DB092C26DC0B46814A82480021A0FBF1
:1019300004605970C00800EB8000A4EB4000125C0A
:1019400028461A70BDE8F08764422D23092C01F85F
:10195000013B24D8764A774B0020A3FB04634870F0
:101960002846DB0803EB8303A4EB4303D35C0B7033
:10197000BDE8F0876F4B632CA3FB04264FEAD60625
:1019800021DC0B466A4A6B49A1FB0601C90801EB41
:101990008101A6EB4101515C03F8011BC5E7654AD3
:1019A000632CA2FB04364FEAD60637D8604A614B57
:1019B000A3FB0603DB0803EB8303A6EB4303D35C23
:1019C00001F8013BC7E7A3FB0627B4F57A7F4FEA8E
:1019D000D7070DD20B46564A5649A1FB0701C90845
:1019E00001EB8101A7EB4101515C03F8011BCAE740
:1019F000A3FB072842F20F7294424FEAD80836D868
:101A00000B464B4A4B49A1FB0801C90801EB810178
:101A1000A8EB4101515C03F8011BDDE7A2FB06378F
:101A2000B4F57A7F4FEAD7070CD2414A414BA3FB6A
:101A30000703DB0803EB8303A7EB4303D35C01F845
:101A4000013BB4E7A2FB073942F20F739C424FEA15
:101A5000D90921D8364A374BA3FB0903DB0803EB2E
:101A60008303A9EB4303D35C01F8013BDEE7A3FB4F
:101A70000829314A94424FEAD90921D80B462C4A09
:101A80002C49A1FB0901C90801EB8101A9EB410126
:101A9000515C03F8011BB5E7A2FB093A264B9C42B7
:101AA0004FEADA0A21D8224A224BA3FB0A03DB08B9
:101AB00003EB8303AAEB4303D35C01F8013BCAE7C2
:101AC000A3FB09231D4A94424FEAD30A21D80B46AF
:101AD0001849174AA1FB0A01C90801EB8101AAEBC9
:101AE0004101515C03F8011BCAE7A2FB0A38134B02
:101AF0009C424FEAD80813D80E4B0D4AA3FB0803AB
:101B0000DB0803EB8303A8EB4303D35C01F8013B41
:101B1000CAE70A22BAFBF2F04FF06CFD0346D7E7A2
:101B20000A22B8FBF2F04FF065FD0146E4E700BF82
:101B3000289B0708CDCCCCCC9F8601003F420F00EC
:101B40002DE9F0471D4688B0531C0F4603931178CA
:101B5000002900F0D28000240646A0460BE0701C4D
:101B600001D03046B8470134039A531C03931178CF
:101B7000002900F0C3802529F1D1931CCDE9033859
:101B800050782D2800F0AF804FF0000A302800F088
:101B90009180A0F130034FF00009DBB2092B40F235
:101BA00096806C2835D0782800F2F480572827D901
:101BB000A0F15803202B00F2ED80DFE813F00501BF
:101BC000EB00EB00EB00EB00EB00EB00EB00EB00BD
:101BD000EB00EB00DD00ED00EB00C400EB00EB00E0
:101BE000EB00EB00EB00EB00EB00E600EB00EB00A2
:101BF000EB00EB00B600EB00A300EB00EB000501EF
:101C000000287BD0252840F0C580731CABD025214F
:101C1000A7E7039B5A1C039219787829A5D857295E
:101C200067D9A1F15803202B9FD801A050F823F0C9
:101C3000A51D01086B1B01086B1B01086B1B01082C
:101C40006B1B01086B1B01086B1B01086B1B010858
:101C50006B1B01086B1B01086B1B0108791D010838
:101C6000BD1D01086B1B0108471D01086B1B010806
:101C70006B1B01086B1B01086B1B01086B1B010828
:101C80006B1B01086B1B01088D1D01086B1B0108F4
:101C90006B1B01086B1B01086B1B01082B1D010846
:101CA0006B1B0108051D01086B1B01086B1B01085C
:101CB000A51D0108039B4FF0010903EB09020392E4
:101CC0001878A0F13003DBB2092B3FF66AAF04AA03
:101CD00003A9FEF7D3F9BAF1000F3FF462AF049BFA
:101CE0005B4204935DE7D31C4FF0010A03939078A5
:101CF0004CE719B1252988D037E70C46204608B0B3
:101D0000BDE8F08705A955F8040BFEF779F905AB96
:101D10003A464FF0FF3130460193CDF80090049BD6
:101D200050F032FA039A04441FE755F804CB3A46C0
:101D3000049B4FF0FF313046CDE9008C50F024FA7F
:101D4000039A044411E7073525F00705F5E8020179
:101D500058F034FD00EE100A05A84FF0D9FB05AB92
:101D60003A464FF0FF313046CDE90093049B50F0E6
:101D70000BFA039A0444F8E6721C3FF4F4AE55F8EB
:101D8000041B3046C9B2B847EDE6039A55F8043B48
:101D90001C60EAE6039AE8E605A955F8040B4FF043
:101DA00041FCB4E7A1F1580205AB102155F8040B32
:101DB000B2FA82F252094FF07BFCA8E705A955F868
:101DC000040B4FF02FFCA2E7A0F1580205AB102145
:101DD00055F8040BB2FA82F252094FF069FC96E70B
:101DE0002DE9F84F06464068AB4F9146D0F810C039
:101DF0008846D6F80CA0CCF30322DAF8043057F862
:101E0000224014F5803F00F0A4803A19B4F1000E8E
:101E1000A24992F8205018BF4FF0010E591A5A5992
:101E200018BF012122F001025A51002940F082809E
:101E3000BEF1000F7ED19A4A00214FF0210E1160B1
:101E400051609160D1601161C2F814E05A5922F0DA
:101E500060625A513F229A605FFA8CF3427907EB35
:101E60008303D3F828B0032A00F2BC81DFE802F034
:101E70005F5C59020568403550463C4455F0ACFA69
:101E80000A23AAF81C30D6F80CA0504655F0A4FA44
:101E9000844B03219AF91400CAF80C30CAF8186070
:101EA000FFF7D8FA9AF9140057F07CF8F26894F822
:101EB000203050687C49C458C21821407B4C0C43E8
:101EC0007B49C450546944F0070C7468C2F814C0CC
:101ED00050F803C02CF0C07C40F803C050F803C099
:101EE0002CF4C00C40F803C0C2F80C809560556813
:101EF000294041EA09015160C25822F0606242EA79
:101F00000B02C250A379326813F0040F6379506852
:101F10001F4497F8481017D056F0A2F80120BDE8EA
:101F2000F88F05683C35A7E705683835A4E70568EC
:101F30003435A1E75F4A9A1A18BF0122BEF1000F9B
:101F400018D1BAB95C4A77E756F0E4F90120BDE848
:101F5000F88F524A934229D0564A93427FF47CAF7D
:101F6000564B1A6942F480021A611A6922F48002FF
:101F70001A6171E7B4F1010E18BF4FF0010EF9B903
:101F8000BEF1000F1CD14E4A00214FF0210E11600E
:101F900051609160D1601161C2F814E05A5922F089
:101FA00060625A514FF474629A6055E7434B1A6964
:101FB00042F400121A611A6922F400121A614BE706
:101FC00022B9BEF1000F01D13E4ADDE7B4F1020EA5
:101FD00018BF4FF0010EA9B9BEF1000F12D13A4A55
:101FE00000214FF0210E116051609160D1601161AC
:101FF000C2F814E05A5922F060625A514FF47C1230
:102000009A6029E722B9BEF1000F01D12F4AE7E714
:10201000B4F1030E18BF4FF0010EA9B9BEF1000FC5
:1020200012D12B4A00214FF0210E116051609160B6
:10203000D1601161C2F814E05A5922F060625A511D
:102040004FF074629A6007E722B9BEF1000F01D128
:10205000204AE7E7B4F1040E18BF4FF0010EA1B912
:10206000BEF1000F11D11C4A00214FF0210E11606A
:1020700051609160D1601161C2F814E05A5922F0A8
:1020800060625A513F22DA60E6E64ABBBEF1000FB9
:1020900026D1124AE8E700BFD809070800600240CD
:1020A00010600240E15806081F80FCFF4054020007
:1020B0000000FFFF0064024010640240003802404C
:1020C00028600240286402404060024040640240B0
:1020D00058600240586402407060024070640240E0
:1020E000B4F1050E18BF4FF0010EA9B9BEF1000FF3
:1020F00012D13D4A00214FF0210E116051609160D4
:10210000D1601161C2F814E05A5922F060625A514C
:102110004FF47462DA609FE622B9BEF1000F01D17C
:10212000324AE7E7B4F1060E18BF4FF0010EA9B925
:10213000BEF1000F12D12E4A00214FF0210E116086
:1021400051609160D1601161C2F814E05A5922F0D7
:1021500060625A514FF47C12DA607DE622B9BEF11A
:10216000000F01D1234AE7E7234A934214D1072CF9
:1021700012D1224A00214FF0210E1160516091606E
:10218000D1601161C2F814E05A5922F060625A51CC
:102190004FF07462DA605FE6194A00214FF0210EB9
:1021A000116051609160D1601161C2F814E05A5918
:1021B00022F060625A51002C3FF44CAE012C3FF4E7
:1021C000F1AE022C3FF41AAF032C3FF439AF042CCC
:1021D0003FF458AF052C9BD0062CBBD0072C7FF4C6
:1021E0003BAED5E7002547E68860024088640240A0
:1021F000A0600240A064024000600240B86002405B
:10220000B8640240014B5868704700BF5028004036
:102210000E48D0F8DC3910B5A3B190F8D44700F2DD
:10222000C470D3F8042234B100244023012151F0BA
:10223000A1FD204610BD4FF40073012151F09AFD1D
:10224000204610BD0224204610BD00BFD826012024
:102250002DE9F047BF4B0321BF4C4FF0A04088B0A1
:10226000402584F8B11D1A6BC4F8F809042042F027
:102270000102C4F8FC0904F2C4701A631A6B04F674
:10228000F813C4F8F40D4FF4C05002F00102C4F882
:10229000F4390223C4F80C5A029200250A2206914E
:1022A000029903A9C4F8103AC4F8043AC4F8285AA9
:1022B000C4F8085AC4F8185AC4F8145AC4F8245A6E
:1022C000C4F81C5A05950792CDE90303A34856F0BC
:1022D00043FDD4F8243A012B00F094819D4B062154
:1022E00043205A6B42F080025A635A6B02F080021C
:1022F0000092009A5A6C42F480425A645B6C03F478
:1023000080430193019BFFF7A5F8D4F8F859082200
:10231000934B9A60AB68D4F8102A23F00103D4F8E9
:10232000086A012AAB6040F03981AA6B8D4B22F418
:102330008032D4F82C1AAA630129EA6803EA02035E
:10234000EB60EB6823F44013EB6000F05681284605
:1023500055F0F2FC012E07D1AB6843F00603AB60E9
:10236000AB6843F02003AB60D4F8F8393220012584
:10237000DA6822F0C042DA60DA6842F08042DA605D
:1023800057F0A0FC784A00211346084683F838101D
:10239000D987013183F839500F2983F83B00D8647D
:1023A000C3E9100003F11C03F0D10021D4F8F8397F
:1023B000084682F8F81101F14005D187013103EB9D
:1023C000850582F8F9010F2982F8FB01C2F80C0299
:1023D000C2E9800002F11C026860EAD19A6BD4F86D
:1023E000246A42F40012D4F8FC59D4F804EAD4F870
:1023F00008CAD4F8101AD4F8147A9A635EB99A6BA2
:1024000022F400129A631A6842F040021A601A68B5
:1024100042F080021A600020012903F50062C3F82F
:10242000000ED3F80008C3F8000800F0D18003299B
:10243000D3F8001838D041F00301C3F800184FF466
:1024400084604A49186101E0013902D018698006A8
:10245000FAD410204549186101E0013902D0186909
:10246000C006FAD400214FF0FF3011615161906134
:10247000D1610DB303F510604FF0904A4FF0FF09A2
:102480008E4609E0C0F800E00131C0F810E0C0F865
:1024900008902030A94253D0D0F80080B8F1000F46
:1024A000F0DAC0F800A0EFE7BEF1000FC5D041F0B0
:1024B0000101C3F80018C2E71169BCF1010F21F452
:1024C0008071116175D000206FF080419861596171
:1024D000BCF1000F03D1996941F01001996198692D
:1024E0002349014399611FB1996941F0080199613C
:1024F000012E03D198691F49014399610120D4F845
:102500001C1A814284F8B10D69D05368032043F04E
:102510000203536057F0D6FBD4F8F839802200202C
:102520005A625A6A42F480029A625A6A996A02EBC3
:10253000114242F40002C3F8042108B0BDE8F0875C
:10254000002003F530614FF0904A4FF0FF098646B6
:102550001CE000BF00380240D826012000000240E5
:1025600000E100E0BFFFBDFFD0300120400D0300BF
:1025700000383C8004000040C1F800E00130C1F8A0
:1025800010E0C1F808902031A84295D0D1F8008021
:10259000B8F1000FF0DAC1F800A0EFE7EB682846C9
:1025A00043F04003EB6055F0C7FB4FF48033AB635F
:1025B000D0E619480025194910636FF08040D2F821
:1025C00030C04CEA01011163116B9D61586186E7CF
:1025D000D3F80018BEF1000F7FF469AF2DE700209B
:1025E000C4F8EC1D0E4984F8E40D986940F00060D1
:1025F0009861586D0143596587E7EB6843F4801390
:10260000EB60A4E64FF4007303A906480393CDE9F9
:10261000045556F0A1FB61E60001800003000100B3
:102620000300001000000240037870B433B3024688
:10263000C0F10105531912F8014FDBB2002CF9D19A
:1026400001335B00DAB20F4C03250B8084F8F82DC0
:1026500084F8F95D017879B1022300265A1CE51847
:10266000023354FA82F285F8F81DDBB282F8F86D75
:1026700010F8011F0029F1D170BC704702221346E7
:10268000E1E700BFD826012070B500200124FFF744
:102690005BF80D4B4FF406760C4D184601211BB12B
:1026A000DE801C7248F00CFE032C08D055F8243054
:1026B000012101341846002BF2D1032CF6D1002061
:1026C000BDE87040FFF740B8F42A0120240A07084B
:1026D00099B10A6B824216D9154BD3F8242F914237
:1026E00021D34C3991421ED30B6B9842F9D38B6B9B
:1026F0009842F6D80B46184670470D4BD3F8241F66
:102700000A6B904212D30B680BB9F4E70A6B904244
:102710000B4602D38A6B9042EDD951F84C3F002B07
:10272000F4D1184670470023184670470A46D8E788
:10273000D82601202DE9F047CC0143D10346224998
:102740004FF0FF32022443F8081B7E2642601846F1
:10275000DFF878802644051D6FF07047D8F8289F71
:102760004FF0010A013E494608E0A3421CD0631C19
:1027700045F8043C321B1C460435CAB10B6BA3421E
:1027800002D88B6BA34204D22046FFF7A1FF01467B
:1027900090B10A794B6B002AE7D1A34204D0E6D26C
:1027A000631C45F8042CE5E7631C45F8047CE1E76D
:1027B000C8F8281FBDE8F087321B631C494645F85E
:1027C00004ACD8E78026C3E7F8FFFF0FD826012026
:1027D00090F91030144A03EB830370B50C468168FE
:1027E00002EB830305468A075E6810D5A36830466E
:1027F000D4E9001254F0AAFD3046E168D4E904237C
:1028000054F0A4FDAB689B0708D5012070BD40695A
:1028100048F050FD082048F02DFCE7E7284649F035
:10282000D5FC012070BD00BF00000120804BB3FB30
:10283000F2F399420DD300234FF07E5243600260C1
:102840008360C36003610023836143610362C361EA
:10285000704707EE902A9FED777AF8EE676A07EEE9
:10286000901AF8EE677A66EE876A66EEA76AFDEE62
:10287000E67A17EE903A2033402B00F2CA80DFED63
:102880006E7AF4EEE76AF0EE667AF1EE10FA0CDD9D
:10289000DFED6A5A9FED6A6AB0EE677A77EEE57A05
:1028A000B4EEC67AF1EE10FAF6DC9FED667AF4EE3D
:1028B000C77AF1EE10FA0CD5DFED605A9FED626A2F
:1028C000B0EE677A77EEA57AB4EEC67AF1EE10FA3A
:1028D000F6D49FED5E7AF4EEC77AF1EE10FA00F3CB
:1028E00090809FED5B7AF4EEC77AF1EE10FA03D593
:1028F0009FED547A77EE677A27EEA76ADFED555A97
:10290000DFED554AB6EE007A9FED545AE6EE254AC1
:10291000DFED535A27EE864AA6EE245AE6EE055A14
:10292000E4EE257A27EE877A9FED486A76EE867A7E
:10293000FDEEE75A15EE903A2033402B66D8F4EEC0
:10294000C66AF1EE10FA0CDDDFED3C5A9FED3C6AF1
:10295000F0EE676A77EEE57AF4EEC66AF1EE10FA09
:10296000F6DCDFED386AF4EEE67AF1EE10FA0CD51B
:10297000DFED325A9FED346AF0EE676A77EEA57AA2
:10298000F4EEC66AF1EE10FAF6D4DFED306AF4EE3A
:10299000E67AF1EE10FA3FDDDFED276A76EEE77AB0
:1029A00067EEA76A9FED2B6A9FED2B5AF8EE004A5F
:1029B000DFED2A5AA6EE865A9FED296A27EEA64A2F
:1029C000E6EE855AA6EEA56AE4EE067A67EEA47AEC
:1029D000C7EE006AB7EE006A76EE865A76EE666A51
:1029E00086EE257A67EE277A80ED007A66EE876AB2
:1029F00080ED027AC0ED017AC0ED037AC0ED046A81
:102A000021E79FED0D7A77EE677A75E7DFED157AAE
:102A1000DEE79FED147A87E7DFED0D6AF4EEE67AE4
:102A2000F1EE10FABCD5DFED076A76EEE77AB7E78C
:102A300020A1070027D4D236DB0F4940DB0FC94065
:102A4000E4CB1641DB0F49C0E4CB16C1DB0FC93F15
:102A5000DB0FC9BF9A7C2E36FAAF4FB93587083CD9
:102A6000A4AA2ABE000000000023034A03604260BB
:102A70008360C360704700BF83F9223E10B40549EC
:102A80000024054A054B046041605DF8044B8260F8
:102A9000C36070475B128B3A6F12033B8943273F39
:102AA0006428034BB8BF6420C3F80C04704700BF10
:102AB00000000120034B64281B69B8BF6420D86064
:102AC000704700BF000000202DE9F04790B00E468F
:102AD0000746914601A83C2200219A461A9DDDE94D
:102AE00018485DF0D1FD2E4B8DF80460CDF8348090
:102AF0000293002E4FD0B31E012B4ED9042E14BFCB
:102B000000220322DFF89C8001238DF80520D8F8ED
:102B1000702F039414448DF83130CDE90557049497
:102B2000B9F1000F2CD198F8763F0022012B0E92BC
:102B30001BD898F875CF013301ACCCEB0C1588F895
:102B4000763FBCFA8CFC08EB85054FEA5C1C05F669
:102B500078750FCC0FC50FCC0FC50FCC0FC594E8FF
:102B6000070085E8070088F875CF3B6883B15346B6
:102B70004A463146384610B0BDE8F04729F05AB809
:102B80005246494607A85DF03BFB8DF830A0CAE7E6
:102B900010B0BDE8F0870522B4E70222B2E700BF1B
:102BA00008360120D826012000230360704700BFAB
:102BB000F0B415490025154B41F2240281F8F45F69
:102BC0001224A3F1C80541F2140042F6F8260027AA
:102BD0008D5001F6F8720E4D81F8F84F41F218044D
:102BE0000D5001200B4DC2E902670B4A0D5143F80D
:102BF000A82CF0BC43E9322243E9302243E92E22DB
:102C000043E92C22704700BFD8260120D03701208D
:102C1000894F0308954F0308E003E003094B41F295
:102C2000240241F214004FF478719A5810B4064C03
:102C30001C50931E223223F8021F9342FBD15DF8F1
:102C4000044B7047D8260120454B0308F0B5254BAF
:102C5000112041F2140141F21802234C41F60B26D7
:102C6000224D00279C504FF47872214C85B083F898
:102C7000F80F03F6F8705D504FF478734FF47871E5
:102C8000C0E9026744E92823402044F8601C44E975
:102C9000262344E9242344E9222344E9202344E968
:102CA0001E2344E91C2344E91A232BF011FAB8B17E
:102CB00014F8552C0023032190F90400012A0D4A31
:102CC00001914FF040010CBF08251D46009202956E
:102CD000094A2BF037F944F83C0C003818BF0120A2
:102CE00005B0F0BDD8260120DD570308E5560308DE
:102CF000D0370120A06806001164030864281C4B2B
:102D000028BF642000EB800070B54600A3FB0623BB
:102D10005D095B0922D0002401349F2049F06CFC3E
:102D2000E3B29D42F8D80A2D00D170BD1148C5EB21
:102D300085136C1CA0FB0620C5EB830300096638D5
:102D40001844C0B249F058FC092DEED001349A2045
:102D500049F052FCE4B20A2CF8D170BD05480124B8
:102D6000A0FB063000096638C0B249F045FCEDE72B
:102D70001F85EB51CDCCCCCCF0B41A4F17F8381CD2
:102D800007292DD80C224B1C02FB0171DBB2303914
:102D900051F8042CD4070DD502420BD091F90060F4
:102DA0000022114C94F900500C34B5420DD0013280
:102DB000082AF7D101330C31DBB2092BE8D1082303
:102DC000002007F8383CF0BC704702EB420207498C
:102DD00007F8383C01EB8202F0BCD2F8940170474E
:102DE0000020F0E7D037012068280120D8260120F4
:102DF0000144884219D030B4441E4D1E002041F2D7
:102E0000210114F8012F082380EA022010F4004F5A
:102E10004FEA400281EA40000CBF90B280B2013B11
:102E2000F4D1AC42EDD130BC70470020704700BFF8
:102E300010B52DED088B70EE60BA90ED01AA037805
:102E4000F0EE408AF0EE419A04462BEE8AAAB0EEEC
:102E5000618AB0EE42BAF0EE62AA002B42D1D0ED08
:102E60000C7A77EEE07A94ED0A7A87EEA90AC4ED3F
:102E70000C0AB5EEC07AF1EE10FA38DCD4ED032A74
:102E800060EE227A94ED050A67EEAA2A94ED0B7A99
:102E900068EE808A78EE877A77EE8A7A77EEA27A81
:102EA000F4EEC87AF1EE10FA2ED487FECB0A70EE5B
:102EB000677A94ED046AD4ED026A84ED0D7A67EEC8
:102EC000867A84ED0EAAC4ED108AC4ED0F2AEBEECB
:102ED000A67A84ED110AA9EEA77ABDEC088B84EDE1
:102EE0000B7A10BD0023DFED0A7A0370BBE794ED87
:102EF000039AF0EE470AB0EE691A04F118005DF08B
:102F000057FD69EE007ABDE7B0EE480ACFE700BF93
:102F100000000000344870B490F83030A3F1300164
:102F2000092957D800F130043F30224612F8015FDA
:102F3000A5F13001092904D88242F7D1002070BCE4
:102F40007047141B022C4BDD2848002101E010F8CB
:102F5000013B01EB8101161A044603EB4103022EEB
:102F6000A3F1300303F0FF01F1DC214B03FB01F17E
:102F7000A2424FF000030ED903EB830314F8016B58
:102F80005B00A242A3F13003334403F0FF03F3D10B
:102F9000184800FB03F32E2D06D01748A0FB03238F
:102FA00070BC01EB9300704701320425002404EB50
:102FB00084041078013D303864000928A4B220440C
:102FC00001D8013284B215F0FF05F0D1642202FB72
:102FD0000433E2E700211D4600F130020B46DAE738
:102FE0000021064CC4E700BFD03701200138012082
:102FF0008096980040420F00ABAAAAAA0038012090
:103000009B1A00FB03F393FBF1F18818704700BF94
:10301000084BD3E910029B6C824202DB1146024648
:103020000846984204DD9A42B8BF1A4610467047D7
:10303000704700BFD0370120114A30B4D2E91303E2
:10304000D2E915418342D26D02DB1D460346284674
:103050008A4202DB15460A4629468842A8BF08462E
:103060009342B8BF1346A04202DC224604461046F3
:10307000834203DAA342B8BF2346184630BC7047E8
:10308000D03701200B6810B414681B1B0360546810
:103090004B681B1B5DF8044B43608B6892689B1A5E
:1030A000836070472DE9F043164685B08046084698
:1030B0004EF086FC4FF47A720546002389463C2484
:1030C00057F0DAFCB6F900C00746494628464FF4E7
:1030D0007A7200230CFB0477002557F0CDFC4FF4E7
:1030E0007A7394B201A8C3FB07452B4622464EF0E3
:1030F000ABFB404B93F86230012B2FD0022B10D149
:103100009DF80670FB1E082B0BD83B1F062B1BD906
:103110003946BDF804004EF02BFB032F36D00B2FA1
:1031200041D022462B4640464EF08EFB05B0BDE80E
:10313000F083032F55D00A2FF3D19DF80870B7FA0A
:1031400087F77F09002FECD02B4B0022E41833883F
:1031500003F13C0342EB05053380E2E79DF806707E
:10316000FB1E072BDDD83B1F052BEDD93946BDF8DB
:1031700004004EF0FDFA9DF807309842D9D0033F85
:1031800018BF0127002FDFD1CBE707380E28FCDC62
:103190009DF80730834212D0CCBF01270027002FB3
:1031A000D2D1BEE707380728FCDC9DF80730834200
:1031B0000ED0B4BF01270027002FC5D1B1E79DF87D
:1031C0000870012F94BF00270127002FBCD1A8E76A
:1031D0009DF80870012F8CBF00270127002FB3D165
:1031E0009FE79DF80870003F18BF0127002FABD163
:1031F00097E700BFD037012080EE360030B5046875
:1032000085B0E4692CB10DF10F050095A04705B01C
:1032100030BD204605B030BD38B52321094C0A4DDC
:10322000286F4CF059FD14F8011F0029F8D1074808
:103230004CF08CFD95F8743013B1012385F875308E
:1032400038BD00BF509B0708D03701205C9B0708A2
:103250002DE9F04F9946D34389B006466FEA090B32
:10326000DB0F002505924FEADB7B07910693059B58
:10327000AB4207D0069B2BB10135042DF7D109B025
:10328000BDE8F08FF223244A0799002403FB05F3DD
:10329000224F01EB030802EB030AA1452B463A46F5
:1032A000304602D0BBF1000F31D13AF814C038F8E3
:1032B00014100CF01F0E1CF4006FA1EB0C01CCF3EA
:1032C000441CCDF804E018BF4FF0560EB1FA81F15E
:1032D00008BF4FF0480E00944909CDE902CE049191
:1032E00044F0D8FA38F81430049913F4006FC3F39B
:1032F000441203F01F0C009414BF562048202B46A4
:1033000003903046CDE901C23A4644F0DDFA01347B
:10331000792CC2D1B0E700BF483801206C9B070868
:10332000404B414A2DE9F04F93F8A86D89463F4D37
:103330008BB0DFF800B18046002E08BF2A464D460C
:10334000002693F9A91D3A4803F6080443F022F831
:10335000B9F1000F47D02F782378D5F804C0BB42CD
:1033600043D0D5E902E0002195F816A033465A462D
:103370000991CDF81CA0B5F914A0CDF818A0B5F9A5
:1033800012A0CDF814A0B5F910A00097CDE9030A5A
:10339000CDE901CE404644F07DFA0999A07D33463F
:1033A000B4F914A00136B4F912E05A46B4F910C0C9
:1033B0001835E76807904046CDF818A0D4F808A063
:1033C000CDF814E0D4F804E0CDF810C014F818CB10
:1033D000CDE902A7CDE900CE44F076FA3C2EB7D174
:1033E0000BB0BDE8F08F4946D8E76368D5F808E030
:1033F000634501D0E868B6E7A368E8687345B2D1D1
:10340000E3688342AFD122692B699A42ABD16269EA
:103410006B6922F07F4223F07F439A42A3D10121BE
:10342000A2E700BFD0370120B4A00708889B070897
:103430008C9B07089C9B07081C4A2DE9F0035469E4
:103440001B4E002CD6F8003403600DDD183200232B
:1034500006F5806501E09C4206D052F8041B01335A
:10346000A942F8D1012200E00022D6F80C34027102
:10347000836096F810240F4B4271D6F8302453F82D
:10348000041C5209D6F828744E0942EAC162F3E8D6
:103490000289D3E90045C0E904898762C0E90826AA
:1034A000C0E90645BDE8F003704700BF00000020FA
:1034B0000000012038040120014BD3F88000704740
:1034C00000000120014BD3F81001704700000120DB
:1034D000014BD3F8C8007047000001200C46054698
:1034E00008B52AF005FD20462AF002FD0020FEF76F
:1034F0002BF9284647F036FEB0B9204647F032FE99
:103500000028F6D00120FEF71FF9204647F022FEE2
:103510000146284647F04CFE0020FEF715F92846E4
:1035200047F020FE0028E8D00120FEF70DF92846DC
:1035300047F010FE0146204647F03AFE0020FEF715
:1035400003F9DAE7F0B5002289B0DFF898C004AFDC
:1035500013460A613E46C1E90022C1E9022202681F
:10356000C2F3855040FA03F43546E40704D513F856
:103570000C4005F8014B2E460133062BF2D1174DB6
:10358000C2F303240023C2F305302C4405F1680C78
:1035900033700DF1190694F860408DF8184040FA28
:1035A00003F43546E40704D513F80C4005F8014B45
:1035B0002E460133062BF2D10023C2F3834506AC1D
:1035C0000846337002F00F030549C2F30312009757
:1035D000CDE901454EF0F8FA09B0F0BDD809070869
:1035E000BC9B0708300A070870B51F4E04460D46FD
:1035F00096F894372DED028B7BB3D6F89C2706F511
:103600008863D6F8A01793EDD68A0260D6F8A4276F
:10361000C0E90112DFED158A95ED000A80EE280A57
:103620005AF01AF8236895ED010A184428EE288A02
:10363000206080EE080A5AF00FF8636895ED020AE0
:10364000184460605AF008F8A368024696F8940798
:103650001344BDEC028BA36070BDB7EE008A83609B
:10366000C0E90033D6E700BFD03701202C7D8E3F64
:10367000F0B4224C94F8945735B9002303604360AA
:1036800083602846F0BC70470B6804F58866D4F860
:103690009C77012AD6EDD67AA3EB0703D4F8A0676E
:1036A0009FED176A07EE103A4B6867EE866AA3EB48
:1036B0000603B8EEC77A07EE903A27EE067AF8EEE0
:1036C000E77A80ED007A67EEA67AC0ED017A0CD039
:1036D000D4F8A4278B689B1A07EE903AF8EEE77AA5
:1036E000C0ED027A2846F0BC7047D1ED027AF8EEC0
:1036F000E77AC0ED027A2846F0BC7047D037012047
:103700002C7D8E3F414A10B492F8A530D2F8841037
:10371000023BD2E92240062B74D8DFE803F05A5C62
:1037200060500655040064424942404280EAE0731A
:103730009FED376AA3EBE07307EE103A84EAE47377
:10374000A3EBE473B8EEC77A06EE903A81EAE17330
:1037500027EE066AF8EEE66AA3EBE17307EE903A0D
:10376000B4EEE66AF8EEE77AF1EE10FA04DDB4EEB4
:10377000E76AF1EE10FA34DC9FED256A26EE866AE0
:10378000B4EE467AF1EE10FA04D5B4EE676AF1EEC3
:1037900010FA2DDC9FED1E6A67EE867AB4EE677A2A
:1037A000F1EE10FA2BD5F4EE676AF1EE10FA26D599
:1037B0000029CCBF042005205DF8044B70474B4224
:1037C000404221461C46B1E7634240420C4619463E
:1037D000ACE74942AAE74B4261421C46A6E7644275
:1037E000A4E700285DF8044BCCBF002001207047FF
:1037F000002C5DF8044BCCBF0220032070474FF033
:10380000FF30D9E723460C4619468FE70000002019
:10381000ABAA2A3F30B5284C83B0DFED286A14F8F4
:10382000533CD4F8005E07EE903A14F8523CF8EEA0
:10383000E77A07EE103A94F8DC3DB8EEC77A67EE07
:10384000A67A04EB4302013327EE267AB2F8E01D94
:10385000FDEEE77AA2F8E00D401A03F00F0317EE31
:10386000902AFDEEC77A284484F8DC3D17EE901AC2
:10387000C4F8000E00098A4211DC114680B217EE2E
:10388000902A40F2FF35002300954FF0B9FB2A46FD
:1038900000214FF0D1FBA4F8040E03B030BD80B27C
:1038A0008142D4BF401A0020824202DB101A80B24B
:1038B000E7E70020E5E700BFD037012014AE234141
:1038C0002DE9F047084C94F881322DED048B82B03D
:1038D000062B00F20884DFE813F055056C04180489
:1038E0000900CC0012067A040000002094EDC87A8A
:1038F0000423D4EDCA7AD4EDCC6A67EE072A27EE0A
:10390000A73A94EDCE7AD4EDD07A66EEA63AD4ED0D
:10391000C71A27EE074A94EDC92A67EEA74AD4EDE5
:10392000D26AE1EEA12A94EDD47AA2EE023AD4ED65
:10393000D67A26EEA65A94EDCB1A67EE075AD4ED46
:10394000CD1A27EEA76A94EDCF2AE1EE013AD4ED25
:10395000D86AA1EEA14A94EDDA7AE2EE024AD4EDF9
:10396000DC7A66EEA66A94EDD11A27EE077AD4EDDA
:10397000D31A67EEA77A94EDD52AA1EE015AE1EEAB
:10398000A15A94EDD71AA2EE026AD4EDD91A94ED99
:10399000DB2AE1EE016AA1EEA17AE2EE027AB1EE53
:1039A000E22AF1EEC32AB1EEE33AF1EEC43A84ED35
:1039B000A72AB1EEE44AC4EDA82AF1EEC54A84ED87
:1039C000A93AB1EEE55AC4EDAA3AF1EEC65A84ED31
:1039D000AB4AB1EEE66AC4EDAC4AF1EEC76A84EDDB
:1039E000AD5AB1EEE77AC4EDAE5A84EDAF6AC4EDDC
:1039F000B06A84EDB17A94EDDE7AD4EDE07A67EEC8
:103A0000075AD4EDE26A27EEA76A94EDE47AD4ED82
:103A1000E67A66EEA66AD4EDDD4A27EE077A94EDE3
:103A2000DF5A67EEA77AE4EEA45A94EDE14AA5EED8
:103A3000056AD4EDE34A94EDE55AE4EE046AA4EE97
:103A4000A47A84F88132E5EE057AB1EEE55AF1EE1A
:103A5000C65AB1EEE66AF1EEC76A84EDB25AB1EE2B
:103A6000E77AC4EDB35A84EDB46AC4EDB56A84ED67
:103A7000B67A94F81A240F2A00F36E8500231B4DA2
:103A800002F16D019FED1A7A1E46184605EB810181
:103A9000D1ED007A38B951ED016AF4EEE67AF1EE33
:103AA00010FA09DDD6B2B4EEE77A0120F1EE10FA91
:103AB00002D5B0EE677AD3B201320431102AE7D1D1
:103AC00004EB8302591C0F2B06F10106D2EDA77AF5
:103AD00007EE101A67EEA76AB8EEC77A66EEA77A05
:103AE00027EE277A00F0698104E000BFE80000209B
:103AF0000000000004EB8301581C91EDA76A0A4600
:103B0000D1EDA86AF4EEC66AF1EE10FA40F15581E3
:103B100066EE065A05EE100A0F28B8EEC55A25EED5
:103B2000866AA5EE067A77EE867A00F0278592ED12
:103B3000A96A991CB4EEE66AF1EE10FA40F13D81F3
:103B400066EEA65A05EE101A0F29B8EEC55A65EEB4
:103B5000A66AA5EE267A77EEA67A00F01185D2ED58
:103B6000AA6AD91CF4EEC66AF1EE10FA40F125817A
:103B700066EE065A05EE101A0F29B8EEC55A25EE64
:103B8000866AA5EE067A77EE867A00F0FB8492EDDF
:103B9000AB6A191DB4EEE66AF1EE10FA40F10D8140
:103BA00066EEA65A05EE101A0F29B8EEC55A65EE54
:103BB000A66AA5EE267A77EEA67A00F0E584D2ED25
:103BC000AC6A591DF4EEC66AF1EE10FA40F1F580C8
:103BD00066EE065A05EE101A0F29B8EEC55A25EE04
:103BE000866AA5EE067A77EE867A00F0E68092ED98
:103BF000AD6A991DB4EEE66AF1EE10FA40F1DD808F
:103C000066EEA65A05EE101A0F29B8EEC55A65EEF3
:103C1000A66AA5EE267A77EEA67A00F0CE80D2EDDF
:103C2000AE6AD91DF4EEC66AF1EE10FA40F1C58015
:103C300066EE065A05EE101A0F29B8EEC55A25EEA3
:103C4000866AA5EE067A77EE867A00F0B68092ED67
:103C5000AF6A03F10801B4EEE66AF1EE10FA40F142
:103C6000AC8066EEA65A05EE101A0F29B8EEC55ABA
:103C700065EEA66AA5EE267A77EEA67A00F09D801C
:103C8000D2EDB06A03F10901B4EEE66AF1EE10FA82
:103C900040F3938066EE065A05EE101A0F29B8EE2F
:103CA000C55A25EE866AA6EE057A77EE867A00F08A
:103CB000848092EDB16A03F10A01F4EEC66AF1EE76
:103CC00010FA7ADD66EEA65A05EE101A0F29B8EE44
:103CD000C55A65EEA66AA6EE857A77EEA67A6CD00E
:103CE000D2EDB26A03F10B01B4EEE66AF1EE10FA1E
:103CF00063DD66EE065A05EE101A0F29B8EEC55AB6
:103D000025EE866AA6EE057A77EE867A55D092ED94
:103D1000B36A03F10C01F4EEC66AF1EE10FA4CDD61
:103D200066EEA65A05EE101A0F29B8EEC55A65EED2
:103D3000A66AA6EE857A77EEA67A3ED0D2EDB46A70
:103D400003F10D01B4EEE66AF1EE10FA35DD66EE30
:103D5000065A05EE101A0F29B8EEC55A25EE866AE6
:103D6000A6EE057A77EE867A27D092EDB56A03F152
:103D70000E01F4EEC66AF1EE10FA1EDD66EEA65AEA
:103D800005EE101A0F29B8EEC55A65EEA66AA6EE22
:103D9000857A77EEA67A10D0D4EDB66AF4EEC66ACC
:103DA000F1EE10FA09D566EE066AF2EE0E5A26EE2C
:103DB000866AA6EE257A77EE867AB34240F34B8187
:103DC00004EB83005A1E90EDA76AD0EDA66AF4EECC
:103DD000C66AF1EE10FA40F13E81591C66EE065AB1
:103DE000B24205EE101A25EE866AB8EEC55A77EE95
:103DF000867AA5EE067A40F32E8190EDA56A991E8B
:103E0000B4EEE66AF1EE10FA40F1258166EEA65AAC
:103E1000B14265EEA66A05EE903AF8EEE55A77EE05
:103E2000A67AA5EEA67A40F316810746D81ED7EDEE
:103E3000A46AF4EEC66AF1EE10FA40F10C8126EEA7
:103E4000065A05EE902AB042F8EEE55A25EE066ACB
:103E5000A5EE867A77EE867A40F3FD8097EDA36A29
:103E60001A1FB4EEE66AF1EE10FA40F1F48026EE85
:103E7000A65A05EE901AB242F8EEE55A65EE266AA9
:103E8000A5EEA67A77EEA67A40F3E580D7EDA26A92
:103E9000591FF4EEC66AF1EE10FA40F1DC8026EE0E
:103EA000065A05EE900AB142F8EEE55A25EE066A8A
:103EB000A5EE867A77EE867A40F3CD8097EDA16AFB
:103EC000981FB4EEE66AF1EE10FA40F1C48026EED7
:103ED000A65A05EE902AB042F8EEE55A65EE266A3B
:103EE000A5EEA67A77EEA67A40F3B580D7EDA06A64
:103EF000DA1FF4EEC66AF1EE10FA40F1AC8026EE5D
:103F0000065A05EE901AB242F8EEE55A25EE066A18
:103F1000A5EE867A77EE867A40F39D8097ED9F6ACC
:103F2000A3F10801B4EEE66AF1EE10FA40F19380D5
:103F300026EEA65A05EE900AB142F8EEE55A65EE75
:103F4000266AA5EEA67A77EEA67A40F38480D7EDAE
:103F50009E6AA3F10900F4EEC66AF1EE10FA7AD572
:103F600026EE065A05EE902AB042F8EEE55A25EE06
:103F7000066AA5EE867A77EE867A6CDD97ED9D6A05
:103F8000A3F10A02B4EEE66AF1EE10FA63D526EE6A
:103F9000A65A05EE901AB242F8EEE55A65EE266A88
:103FA000A5EEA67A77EEA67A55DDD7ED9C6AA3F149
:103FB0000B01F4EEC66AF1EE10FA4CD526EE065A65
:103FC00005EE900AB142F8EEE55A25EE066AA5EE36
:103FD000867A77EE867A3EDD3846A3F10C0790EDBF
:103FE0009B6AB4EEE66AF1EE10FA34D526EEA65AD4
:103FF00005EE902AB742F8EEE55A65EE266AA5EE80
:10400000A67A77EEA67A26DDD0ED9A6A0D3BF4EE1D
:10401000C66AF1EE10FA1ED526EE065A05EE901A83
:10402000B342F8EEE55A25EE066AA5EE867A77EEFB
:10403000867A10DD94EDA86AB4EEE66AF1EE10FA25
:1040400009D526EEA66AF0EE085A66EE266AA6EEB6
:10405000A57A77EEA67AF5EEC07AF1EE10FA40F383
:10406000708287EE278AC24B94F882A2D3ED007A41
:10407000B7EE007A38EE478A28EE278AB4F8200493
:1040800056F052F8064618EE100A0F4656F06EF833
:10409000804689463046394642464B4656F044FBF8
:1040A00008B946464F463946304656F087FB00EE83
:1040B000100A0AEBCA0305EB830000F52D705CF0D3
:1040C0007FFC94F88222BCEEC00A94F8813202F59B
:1040D000C87204EB420210EE100AB2F8E810A2F81F
:1040E000E800A2F8EE105A1CA24BA3FB0213D11A4F
:1040F00003EB51039B08C3EBC303D31A84F881324B
:1041000002B0BDEC048BBDE8F0879B4DD4EDA87ADE
:10411000B0EE006AD4EDA75AF6EE006A77EEA77A01
:10412000B4F88412D4F898220139B0EE664AB0EEA1
:10413000677A1032D5EE867A05EBC1008F4BA5EE7B
:10414000867A083867EEA67A27EE267AC4EDC87A12
:1041500084EDC77AD0ED036A0139D0ED027A02F11D
:104160000802D3ED705AA0F10800D3ED6F4A03F1B5
:10417000080335EEE67A12ED036A37EEE45A77EE7D
:10418000A47A76EEA56A52ED045AA6EE057AE5EE1B
:10419000857AA5EEE67AE6EE267A27EE047A67EED1
:1041A000847A83ED8E7AC3ED8D7AD3D194F88132FF
:1041B00099E7714DD4F88C222846B4F8901255F046
:1041C000AFFD94F88132013384F881329EE794F890
:1041D000822294F8FC30694D9E1DC3F1200306EB4A
:1041E000421213F0FC0FC3F38501DFB205EB820628
:1041F00000F0BF81013106F110022B46080106EBE9
:10420000011112ED026A103293EDD17A103352EDA2
:10421000076A52ED057A26EE076AD3EDCC4A12ED15
:10422000087A8A4293EDCB5A66EEA46AD3EDCE5A51
:1042300027EE057A83ED6B6A67EEA57AC3ED6A6AAD
:1042400083ED697AC3ED6C7ADBD14D4BA0F110019F
:10425000A3F5C4720E440B44114417F003021BD0A3
:10426000D6ED007A013A93ED007A67EE877AC1EDD8
:10427000007A11D0D6ED017A012A93ED017A67EE2A
:10428000877AC1ED017A07D0D6ED027A93ED027AF2
:1042900067EE877AC1ED027A94F8FC60002E85D033
:1042A000CF3794F88232B00805EB870C05EBC313C7
:1042B000ACF5C47C05EB870503F1180734D0013059
:1042C00007F1100305F110010CF110024FEA001E76
:1042D00007EB001013ED046A103351ED047A10322D
:1042E00053ED066A103126EE276A51ED067A13ED7A
:1042F000077A51ED075A66EEA76A53ED057A8342B5
:1043000002ED086A27EE257A11ED056A42ED066A8C
:1043100067EE867A02ED077A42ED057ADAD1AEF1E0
:1043200010031F441D449C4416F003033FF43EAFAA
:10433000D7ED007A013B95ED007A67EE877ACCEDF8
:10434000007A3FF433AFD7ED017A012B95ED017A76
:1043500067EE877ACCED017A3FF428AFD7ED027A89
:1043600095ED027A67EE877ACCED027A1EE700BF00
:104370001C040020254992249C020020E800002013
:1043800024040020B4F88432804D5908D4F88822DF
:1043900005EB8308DB084FEA810005EB810E00F096
:1043A000A0805E1C10300EF1100302F1100C0EEB19
:1043B000061E404408F11007A5F5DA7657ED047A99
:1043C000103396ED6D1A0CF1100C50ED041A1036E6
:1043D00013ED086A71EE278A57ED032A31EE671A4A
:1043E00010ED032A36EE218A57ED013A71EEC61A16
:1043F00013ED064A103753ED054A103057ED066AA3
:1044000053ED075A50ED067A10ED057A35EE820A23
:1044100096ED6B3A72EE655A96ED6A5A74EE270A7B
:1044200096ED6C6A77EEC47AC6ED698A35EE229A0B
:1044300036EE232A35EE625A73EE268A86ED6A9AA4
:1044400074EE872A86ED6C2A37EE647AC6ED6B8AA5
:1044500073EE666A43ED052A36EE636A03ED088A59
:1044600003ED070A43ED060A73455CED074A1CEDB0
:10447000084A24EEC12A24EE653A65EE242AA5EE08
:10448000042A61EE843AB0EE435AE1EE042AE5EEE6
:10449000A43AA1EEA45A07ED072A47ED082A40EDF9
:1044A000073A00ED085A5CED055A1CED065A26EE57
:1044B000253A65EEE63A27EE854A65EE474AE6EE8E
:1044C000053AA6EE853AA7EE254AE7EEA54A07ED9E
:1044D000063A47ED053A00ED054A40ED064A7FF4FD
:1044E0006DAF89B228460191FBF7EEFD0199404678
:1044F000D4F88822FBF7E8FD94F88132F3E594F8CC
:10450000822202F5C87304EB4303B3F8E810B3F852
:10451000EE308B4206D0012384F81524A4F816143B
:1045200084F8143401321A4B0621A3FB020384F8E9
:10453000811203F4FF7101EB5303D21A84F8822233
:1045400047E694F882A204EB4A03B3F80E3408EE6F
:10455000103AB8EE488A91E5D4EDA77A01260023F7
:104560000C4D27EEA77A67EE277AB0EE677AFFF751
:10457000C1BA05F5DA7105F54F736EE60E231CE43A
:104580000D231AE40C2318E40B2316E49C020020EC
:10459000ABAAAAAAE8000020854B9A6812F4003161
:1045A00070B440F0B08003F5A36503F22C54814E43
:1045B000D4ED997AD5ED013A95ED023AD6F8B80ED8
:1045C00067EEA32AD5ED034A95ED004A27EE832A2C
:1045D00067EEA41AD4ED076A22EEA47AD6F8BC2EB0
:1045E00067EE847A62EE845A937AA1EEA37A24EE7F
:1045F000276A5D42E1EE835A05EE105AA1EEA46AE5
:10460000B8EEC55A36EE877AF2EE041AE7EEA35AF0
:10461000A2EE447AF0EE466A25EE215AE2EE436AB3
:10462000B0EE656AA7EEC37AA2EE246AF0EE477A8E
:10463000B0EE667AF4EEC57AA2EEE37AF1EE10FA05
:1046400007D406EE903AB8EEE65A25EE215A85FEDA
:10465000675A84ED075AF2EE045AD37A90ED375A2E
:104660005D42D4ED506A07EE905AE5EE066AF8EE28
:10467000E77A67EEA57AF4EEE76AF1EE10FA07D46E
:1046800007EE903AF8EEE77A67EEA57AC7FEE67A8B
:10469000C4ED507A137BC9B95A42F2EE046A07EEB0
:1046A000902AF8EEE77A67EEA67AF4EEC77AF1EE92
:1046B00010FA07DC07EE903AF8EEE77A67EEA67A92
:1046C000C7FEC77AC4ED997A70BC70475A42D0EDE4
:1046D000365AD4ED996AB2EE046A07EE902AE5EEF6
:1046E000876AF8EEE77A67EE867AF4EEE76AF1EE2B
:1046F00010FAE7D407EE903AF8EEE77A67EE867A9A
:10470000C7FEE67ADEE703F5A3659FED2B7A95ED0C
:10471000023AD5ED013A63EE037AE3EEA37AF4EEC2
:10472000C77AF1EE10FACFD8D3F82835214E9B0680
:1047300039D506F64863D6F8B80E93ED056ADFED75
:104740001F6A9FED1F7AB4EEE60ADFED1E7A86FE41
:10475000476A86FE276AF1EE10FA53D4DFED1B7A22
:10476000B4EEE70AF1EE10FA00F37981F0EEE00A18
:10477000DFED1D4A70EEA47A74EEC04ABDEEE77A12
:1047800017EE103A2033402B00F27081BDEEE47A30
:10479000F1EE406A17EE102ABDEEE67A203217EEEF
:1047A000104A203444E0D6F8B80E90ED356AC6E7DA
:1047B00000000020D0370120CE8BD33E920A86BF66
:1047C0000080BB4500009643368D2740920A863F05
:1047D000E12E6542DB0FC9BFE4CB1641DB0F49C0B8
:1047E000DB0FC940E4CB16C1DB0FC93FDB0F4940EB
:1047F0009A7C2E36FAAF4FB93587083CA4AA2ABE58
:104800008F2A7544B0EE660A212422225FED124AF7
:104810005FED126AF0EEE00A5FED0D7A70EEA77AB6
:10482000BDEEE77A17EE103A2033402B00F22D81CF
:104830001FED127AF4EEC77AF1EE10FA0CDD1FEDDF
:10484000185A5FED1B5AB0EE677A77EEC57AB4EE70
:10485000E57AF1EE10FAF6DC1FED207AF4EEC77A75
:10486000F1EE10FA0CD51FED225A5FED225AB0EE90
:10487000677A77EE857AB4EEE57AF1EE10FAF6D43F
:104880001FED277AF4EEC77AF1EE10FA40F3DA80E2
:104890001FED2A7A77EE677A67EEA75A1FED2C7A1A
:1048A0005FED2C2A1FED2C4AE5EE872A1FED2D5ACD
:1048B00027EEA52A1FED3A7AA5EEA24AA5EE845A64
:1048C000E2EE057A27EE877A402C00F29F805FEDBA
:1048D000397AF4EEE76AF1EE10FA0CDD1FED405A7A
:1048E0005FED435AF0EE667A76EEC56AF4EEE57A4D
:1048F000F1EE10FAF6DC5FED477AF4EEE76AF1EEDE
:1049000010FA0CD51FED4A5A5FED4A5AF0EE667A5E
:1049100076EE856AF4EEE57AF1EE10FAF6D45FED04
:104920004E7AF4EEE76AF1EE10FA7EDD5FED517A31
:1049300077EEE66A66EEA67A5FED535A1FED534AAC
:104940001FED535AA7EEA54A5FED545A66EEA72A0B
:10495000A7EE845AE7EE855AE2EEA56A402A52D8BD
:104960005FED647AB4EEE70AF1EE10FA0CD51FEDB4
:10497000645A5FED675AF0EE647A74EEC54AF4EE5D
:10498000E57AF1EE10FAF6DC5FED6C7AF4EEE74AC8
:10499000F1EE10FA0CD51FED6E5A5FED6E5AF0EE87
:1049A000647A74EE854AF4EEE57AF1EE10FAF6D404
:1049B0005FED737AF4EEE74AF1EE10FA29DD5FED70
:1049C000757A77EEE44A64EEA47A5FED775A1FEDCC
:1049D000774A1FED775AA7EEA54A5FED785A64EE45
:1049E000A72AA7EE845AE7EE855AE2EEA54AC6EE5C
:1049F000A47A5FED7D6A264C67EEA66AC6EE867ADB
:104A000067EE877ADCE5DFED234AF0E7DFED216A28
:104A1000A4E7DFED217AF4EEE74AF1EE10FAD2D501
:104A2000DFED1E7A77EEE44ACDE7DFED1B7AF4EE98
:104A3000E76AF1EE10FA7FF57DAFDFED187A77EED9
:104A4000E66A77E79FED147AF4EEC77AF1EE10FA92
:104A50007FF522AF9FED117A77EE677A1CE7B0EE13
:104A6000670A1F242022DFED0E4AD3E6FDEEE47A2A
:104A70009FED087AF1EE406A17EE902AFDEEE67A95
:104A8000203217EE904A20341EE79FED027A32E77B
:104A90002C05002000000000DB0FC9BFDB0F49C060
:104AA000920A063F064B93F8511403F2447203F244
:104AB0002C73002918BF134693ED020A704700BFFC
:104AC000D03701202DE9F04F2DED028B87B0354D09
:104AD0000446B0EE408A03901046D5F8C09E0E46BC
:104AE00017469B4655F0D6F90146D9F800C04FF05D
:104AF0000008214489F80B6048463B4689F80A10B3
:104B000032462146CDF80080DCF814409DF848A0DC
:104B10009DF84C90A0479FED240A5346424604A8B6
:104B200028EE000ACDF804B0CDF80080FDEEC07A82
:104B300017EE901A12F042FFD5F8C43E13B11B785D
:104B40004B452BD0D5F8D03E13B11B784B4525D023
:104B5000D5F8DC3E13B11B784B451FD0D5F8E83EA5
:104B6000D3B11B78A3EB0909B9FA89F94FEA5919AE
:104B7000384655F08FF9039C04AB32460134CDF82A
:104B800000902118D5F8C00EC9B247F045FA07B019
:104B9000BDEC028BBDE8F08F9946E9E74FF00109C3
:104BA000E6E700BFD03701200000C84230B41C78CF
:104BB00084B1012C0CD1B3F902408AB1157B94FB6E
:104BC000F5F40470B3F90430527B93FBF2F30B70ED
:104BD00030BC70479A780270DB7830BC0B7070473D
:104BE000054AE51782FB04241222C5EB6404047015
:104BF000B3F90430E9E700BFABAAAA2A30B41C78A5
:104C00004CB1012C05D1B3F90220B3F90430026094
:104C10000B6030BC70479C7852B1157BDB7815FB7C
:104C200004F40460527B03FB02F330BC0B6070475A
:104C300004EB4404DB781222A4000460F3E700BF15
:104C400030B50C4683B0054601920FF0B5FA019BD2
:104C50002246294647F098FA0B4991F9F43E5A1C2E
:104C600001EB430352B283F8F85E83F8F94E352A1C
:104C700005DD0023012081F8F43E03B030BD0120A2
:104C800081F8F42E03B030BDD037012041F2AC03DF
:104C9000104A30B5D45C83B00346012C10D90422ED
:104CA0000D888C7874200DEB02018DF80430ADF87E
:104CB00005508DF8074029F025FB012003B030BDD9
:104CC00002D0002003B030BD41F2AD00125C622A78
:104CD000E5D8F6E7D0370120F8B5214D1D260C4662
:104CE000074605F8246C29F023F8002028F0ACFFD3
:104CF000082028F0A9FF0E2028F0A6FF304628F053
:104D0000A3FF042028F0A0FF042028F09DFF00202E
:104D100028F09AFF302028F097FF002028F094FF19
:104D2000204628F091FF002028F08EFF28F0E2FFB7
:104D3000A5F1200028F0EEFE00B9F8BD15F81F3CE3
:104D40000BB1302B0AD115F8202C15F81E3C13435B
:104D500004D115F81D3C01203B70F8BD0120F8BDC1
:104D6000C84801202DE9F04F0023DFF8FC82002421
:104D70000025424619462DED028B87B0E2E8024538
:104D800002F833100133122BFAD1B44CDFF8DC9265
:104D900004F5407504F11007DFF8D4A22E469FED0C
:104DA000B08A05E000232B6018340835A64247D0AE
:104DB00094F90130002B05DB07EBC303D3F8F03285
:104DC000002BEFD02378002BECD02B79DA07EBD433
:104DD000A168207926F046F921698346207B26F0D8
:104DE00041F9A2780346282ADCD8DFE812F05C00FB
:104DF000760045009400DA017E00430089006002DD
:104E0000690270027B02840258008A028C026200EE
:104E10009C00A100AD00C000D300F100FD000D0119
:104E2000E40101020E021B022802360251028F0227
:104E30001A01430151017A018C019E01C7016E00E4
:104E400097F8003413B197F8023423B907B0BDECDA
:104E5000028BBDE8F08F97F801244021D7F80404B5
:104E600047F006FB002387F8023407B0BDEC028B45
:104E7000BDE8F08F40F282639B45D4BF4FF0000B3A
:104E80004FF0010B5A46237DC5F800B0DB078BD5E8
:104E9000002A89D02B7943F001032B7184E7BBF101
:104EA000000F00F041820122237D2A60DA07F1D44D
:104EB0007AE700FB0BF047F6FF7249464EF0BCF86C
:104EC000021E834618BF0122DDE7002840F0308231
:104ED000BBF1000218BF0122D5E7ABEB000BBBFA18
:104EE0008BFB4FEA5B1B5A46CDE7ABF2355BBBF55C
:104EF000A77F2CBF4FF0000B4FF0010B5A46C2E7C3
:104F0000031E18BF0123BBF1000F14BF9B464FF0D7
:104F1000000B5A46B7E78345ACBF4FF0000B4FF08C
:104F2000010B5A46AFE70028D2D09BFBF0F0C2E756
:104F30005FFA8BF01946019326F04EF8019B1A1E7A
:104F40009B4618BF01229EE75FFA8BFB01905846F3
:104F500026F05CF8019B0246584603EB020B5946CB
:104F600026F03AF8BBF1000218BF01228BE75FFA86
:104F70008BFB0190584626F049F8019B02465846A3
:104F8000A2EB030B594626F027F8BBF1000218BF2D
:104F9000012278E75FFA8BFCBCF1070F00F2CD81AC
:104FA0001A1EC1B24FF0010E97F8010418BF01227A
:104FB00000399B460EFA0CFC18BF012187F802E469
:104FC0004B42434003EA0C03434087F801345AE75D
:104FD000D8F800300121227D0B432960C8F8003049
:104FE000D3077FF5E1AE55E71E4A0121D8F800301E
:104FF000C2F88CB9227D43F002032960D007C8F8BB
:1050000000303FF547AFCFE6D8F800300121227DD0
:1050100043F004032960D107C8F800303FF53AAFE8
:10502000C2E607EE90BA0028B8EEE70A08BF4FF4D0
:10503000FA73019320EE080A4EF05AF9019B07EE2D
:10504000903AF8EEE77A27EE800AFDEEC07A17EE86
:1050500090BABBF1000218BF012214E7B848012042
:1050600035FA8E3C00000020980800200080FFFFE9
:105070001F85EB5107EE90BA0028B8EEE70A08BF8B
:105080004FF4FA73019320EE080A4EF0B7F8D5E713
:1050900007EE90BA0028F8EEE78A08BF4FF4FA73DB
:1050A000019368EE888AB0EE680A4EF021F9F0EEBE
:1050B000407AB0EE680AF0EE678A4EF09FF8019BE6
:1050C00007EE903AB8EEE77AC8EE807A67EE877A14
:1050D000FDEEE77A17EE90BABBF1000218BF01228D
:1050E000D1E61A465846002101934DF0A5FF019BD9
:1050F000002219464FF47A73FDF782FF021E8346A1
:1051000018BF0122BFE64FF47A7200210190584681
:105110004DF092FF0022019B4FF47A71FDF770FF72
:10512000021E834618BF0122ADE611220021019024
:105130000BF1FF304DF080FF019B8646DFF828C25F
:105140004FF0010B18460CEBCE034FF4FA624FF40C
:105150007A7183F8A0B801934DF06EFFD8F8002063
:10516000217D42F48072019BC907C5F800B0C3F8E5
:10517000A408C8F800203FF58DAE15E6642000FBBA
:105180000BF04DF071FF8AFB003BC017C0EB6B1BAF
:105190000FFA8BF02BF0BEF8BBF1000218BF012212
:1051A00071E640F234539B45CCBF4FF0000B4FF0FB
:1051B000010B5A4667E66C4BD3F8942993453FF4AC
:1051C000F1AD02A9D7F8F00345F084FE00286CD0B9
:1051D00058469DF80A2001214DF02EFF624B021E19
:1051E0008346C3F8940918BF012287F8F6034AE6FC
:1051F000D8F800300121227D43F008032960D2074E
:10520000C8F800303FF546AECEE5D8F800300121B1
:10521000227D43F010032960C8F80030D3073FF522
:1052200039AEC1E5D8F800300121227D43F02003DA
:105230002960D007C8F800303FF52CAEB4E5D8F8A7
:105240000030BBF10002484943F0400318BF01227F
:10525000C1F8A4B9C8F8003015E6434BD3F8A82923
:1052600093453FF49FAD02A9D7F8F00345F032FE15
:10527000D8B15846052201214DF0DEFE3A4B021E00
:105280008346C3F8A80918BF012287F8F403FAE59A
:10529000354BD3F8AC2993453FF484AD02A9D7F838
:1052A000F00345F017FE00284CD128607CE55BEA4E
:1052B000030314BF4FF0010B4FF0000B5A46E2E519
:1052C000BBEB000B18BF4FF0010B5A46DBE5B0FA01
:1052D00080F35B09BBF1000F14BF9B464FF0010B3D
:1052E0005A46D0E55BEA03030CBF4FF0010B4FF0C9
:1052F000000B5A46C7E5BBFA8BFB4FEA5B1B5A46CD
:10530000C1E55844D7E5ABEB0000D4E5D8F8003050
:10531000BBF10002144943F0800318BF0122C1F819
:10532000B0B9C8F80030AEE5D8B9D5F800B0CFE5CF
:105330009BFBF0F003FB10B0BDE5021E834618BFD7
:105340000122A0E55846082201214DF075FE064BCA
:10535000021E8346C3F8AC0918BF012287F8F50383
:1053600091E5C5F800B01FE500000020164991F84E
:10537000302032B3F0B4064600200346074602E070
:1053800092F83020DAB100EB80002E2A4FEA40007C
:1053900004D10133CA18324482F83070CA18A0F11F
:1053A000300592F83020A2F13004092C98BF501932
:1053B0000E2B03F1010301EB0302E1D90020F0BC45
:1053C00070470020704700BFD037012070B5174DDF
:1053D0000646D5F8080403791E3B012B02D90021AB
:1053E00045F0E6FE002E09DD114C264414F8011BA1
:1053F000D5F8080445F0DCFEA642F7D195F85F34F5
:105400006BB90C4A0021B5F86834D2F8700F01333B
:10541000094AC5F86004A5F86834516070BD0021E0
:10542000D5F8080445F0C4FEEBE700BFC8480120EA
:10543000D44C0120D8260120284D012010B50A4C5B
:1054400004F6AC5009F09EFCD4F8B83DC01A4DF0FB
:1054500015FE002842F21073B8BF40429842D4BFF4
:105460000020012010BD00BFD037012038B5084C06
:10547000B4F8DA542AF094FC854205DDB4F8DA2455
:10548000044BA3F8DA2938BDBDE8384008F098BFCE
:10549000C848012000000020036813F0400004D039
:1054A00013F4057F14BF0120002070472DE9F0435D
:1054B000294D41F2240C294C41F2280305F1280919
:1054C00085B044F80C50804644F803900F461646C9
:1054D000FDF7A4FB122341F21800DFF888C004F6A0
:1054E000F87184F8F83F42F6F822002344F800C02F
:1054F0004020C1E9022328F0EBFD044630B3FFF75A
:10550000CBFF98F800C0B0F100083F7894F9040090
:105510004B4614BF03220122BCF1000F00960192FA
:105520004FF040010CBF07240624012F0C4AA5F5BB
:105530009E650CBF082600263443029428F002FD25
:10554000B8F1000F05D1003818BF012005B0BDE843
:10555000F083C5F85805F6E7B84D0120D82601209C
:10556000BD5C0308D54C03080248034AA0F155016D
:1055700056389BE7D0370120400D03000248034A0C
:10558000A0F15501563891E7D0370120A0860100DF
:10559000F0B5C34C85B0D4F85C652EB13046FFF74A
:1055A0007BFF002840F06B8194F86805FBF764F9F5
:1055B00094F86035054683421CD0002800F07C81B9
:1055C000C6B1B84B02214FF4165296F9040093F875
:1055D0004150002301910421B5FA85F500921A4645
:1055E0006D09029528F0AEFCC4F8640510B10123E2
:1055F00084F8603594F86905FBF73EF994F86A354C
:10560000054683421ED0002800F01681D4F86C3580
:10561000C3B1A44D032193F90400002395F8485029
:105620004FF49642019108219D4200921A4618BFFC
:105630000D46029528F086FCC4F8700510B10123D0
:1056400084F86A35FBF74AFAD4F874552DB1284628
:10565000FFF722FF002840F0F88094F88005FBF760
:105660000BF994F878350646834231D0002800F0D3
:105670002C818C4E96F84B30012B00F03481022B9C
:105680000CBF894A894AC4F87C250DB32A7A002ABE
:1056900000F02681022A00F02A81012A40F035819B
:1056A000814A4FF49663C4F87C2595F904000221E1
:1056B00000250093019110212B462A46029528F0DF
:1056C00041FCB06720B1012384F8815584F8783516
:1056D00094F88205FBF7D0F894F8833505468342A9
:1056E00035D0002800F09F80D4F88435CBB11A7AE9
:1056F000002A00F0F2806E4901EB8202126F93F9EA
:10570000040003210023009201914FF480711A4696
:10571000029328F017FCC4F8880510B1012384F81F
:105720008335604A634BB2F8701092F8725092F869
:105730007300A3F8CE1792F8741092F8752083F8CE
:10574000D25783F8D60783F8D71783F8D82794F869
:105750008C05FBF791F894F88D350546834227D0E8
:1057600058B34FF4FA70FDF79BF9D4F89035FBB1BC
:105770001A6802F41072B2F5107F19D093F9040080
:105780000821032200234FF4E135029101924FF4E6
:1057900000711A46009528F0D5FBC4F8980538B179
:1057A000404901220023486384F88D2584F894350C
